{
  "contractName": "HelloWorld",
  "abi": [
    {
      "inputs": [],
      "name": "renderHelloWorld",
      "outputs": [
        {
          "internalType": "string",
          "name": "",
          "type": "string"
        }
      ],
      "stateMutability": "pure",
      "type": "function",
      "constant": true
    }
  ],
  "bytecode": "0x608060405234801561001057600080fd5b5061017c806100206000396000f3fe608060405234801561001057600080fd5b506004361061002b5760003560e01c8063942ae0a714610030575b600080fd5b61003861004e565b6040516100459190610124565b60405180910390f35b60606040518060400160405280600c81526020017f48656c6c6f20576f726c64210000000000000000000000000000000000000000815250905090565b600081519050919050565b600082825260208201905092915050565b60005b838110156100c55780820151818401526020810190506100aa565b838111156100d4576000848401525b50505050565b6000601f19601f8301169050919050565b60006100f68261008b565b6101008185610096565b93506101108185602086016100a7565b610119816100da565b840191505092915050565b6000602082019050818103600083015261013e81846100eb565b90509291505056fea264697066735822122073001d95e0595ae3a5c4f938493c43ce23752e9bce8b48ddc3e2ff243b1e28e064736f6c634300080d0033",
  "immutableReferences": {},
  "source": "// SPDX-License-Identifier: UNLICENSED\r\npragma solidity >=0.4.22 <0.9.0;\r\n\r\ncontract HelloWorld {\r\n    function renderHelloWorld() public pure returns (string memory) {\r\n        return \"Hello World!\";\r\n    }\r\n}\r\n",
  "sourcePath": "C:\\Users\\alwin\\Development\\web_projects\\nft-marketplace\\src\\contracts\\HelloWorld.sol",
  "compiler": {
    "name": "solc",
    "version": "0.8.13+commit.abaa5c0e.Emscripten.clang"
  },
  "schemaVersion": "3.4.6",
  "updatedAt": "2022-04-01T14:40:37.762Z",
  "networkType": "ethereum",
  "devdoc": {
    "kind": "dev",
    "methods": {},
    "version": 1
  },
  "userdoc": {
    "kind": "user",
    "methods": {},
    "version": 1
  }
}