{
  "contractName": "NFTMarketplace",
  "abi": [
    {
      "inputs": [
        {
          "internalType": "address",
          "name": "_nftCollection",
          "type": "address"
        }
      ],
      "stateMutability": "nonpayable",
      "type": "constructor"
    },
    {
      "anonymous": false,
      "inputs": [
        {
          "indexed": false,
          "internalType": "uint256",
          "name": "tokenId",
          "type": "uint256"
        }
      ],
      "name": "AuctionCancelled",
      "type": "event"
    },
    {
      "anonymous": false,
      "inputs": [
        {
          "indexed": false,
          "internalType": "uint256",
          "name": "auctionId",
          "type": "uint256"
        },
        {
          "indexed": false,
          "internalType": "uint256",
          "name": "tokenId",
          "type": "uint256"
        },
        {
          "indexed": false,
          "internalType": "uint256",
          "name": "startingPrice",
          "type": "uint256"
        },
        {
          "indexed": false,
          "internalType": "uint256",
          "name": "duration",
          "type": "uint256"
        }
      ],
      "name": "AuctionCreated",
      "type": "event"
    },
    {
      "anonymous": false,
      "inputs": [
        {
          "indexed": false,
          "internalType": "uint256",
          "name": "auctionId",
          "type": "uint256"
        },
        {
          "indexed": false,
          "internalType": "uint256",
          "name": "tokenId",
          "type": "uint256"
        },
        {
          "indexed": false,
          "internalType": "uint256",
          "name": "totalPrice",
          "type": "uint256"
        },
        {
          "indexed": false,
          "internalType": "address",
          "name": "winner",
          "type": "address"
        }
      ],
      "name": "AuctionSuccessful",
      "type": "event"
    },
    {
      "anonymous": false,
      "inputs": [
        {
          "indexed": false,
          "internalType": "address",
          "name": "user",
          "type": "address"
        },
        {
          "indexed": false,
          "internalType": "uint256",
          "name": "amount",
          "type": "uint256"
        }
      ],
      "name": "ClaimFunds",
      "type": "event"
    },
    {
      "anonymous": false,
      "inputs": [
        {
          "indexed": false,
          "internalType": "address",
          "name": "bidder",
          "type": "address"
        },
        {
          "indexed": false,
          "internalType": "uint256",
          "name": "withdrawalAmount",
          "type": "uint256"
        }
      ],
      "name": "End",
      "type": "event"
    },
    {
      "anonymous": false,
      "inputs": [
        {
          "indexed": false,
          "internalType": "uint256",
          "name": "auctionId",
          "type": "uint256"
        },
        {
          "indexed": false,
          "internalType": "address",
          "name": "user",
          "type": "address"
        }
      ],
      "name": "GotOverbidden",
      "type": "event"
    },
    {
      "anonymous": false,
      "inputs": [
        {
          "indexed": false,
          "internalType": "uint256",
          "name": "offerId",
          "type": "uint256"
        },
        {
          "indexed": false,
          "internalType": "uint256",
          "name": "id",
          "type": "uint256"
        },
        {
          "indexed": false,
          "internalType": "address",
          "name": "user",
          "type": "address"
        },
        {
          "indexed": false,
          "internalType": "uint256",
          "name": "price",
          "type": "uint256"
        },
        {
          "indexed": false,
          "internalType": "bool",
          "name": "fulfilled",
          "type": "bool"
        },
        {
          "indexed": false,
          "internalType": "bool",
          "name": "cancelled",
          "type": "bool"
        }
      ],
      "name": "Offer",
      "type": "event"
    },
    {
      "anonymous": false,
      "inputs": [
        {
          "indexed": false,
          "internalType": "uint256",
          "name": "offerId",
          "type": "uint256"
        },
        {
          "indexed": false,
          "internalType": "uint256",
          "name": "id",
          "type": "uint256"
        },
        {
          "indexed": false,
          "internalType": "address",
          "name": "owner",
          "type": "address"
        }
      ],
      "name": "OfferCancelled",
      "type": "event"
    },
    {
      "anonymous": false,
      "inputs": [
        {
          "indexed": false,
          "internalType": "uint256",
          "name": "offerId",
          "type": "uint256"
        },
        {
          "indexed": false,
          "internalType": "uint256",
          "name": "id",
          "type": "uint256"
        },
        {
          "indexed": false,
          "internalType": "address",
          "name": "newOwner",
          "type": "address"
        }
      ],
      "name": "OfferFilled",
      "type": "event"
    },
    {
      "stateMutability": "nonpayable",
      "type": "fallback"
    },
    {
      "inputs": [],
      "name": "auctionCount",
      "outputs": [
        {
          "internalType": "uint256",
          "name": "",
          "type": "uint256"
        }
      ],
      "stateMutability": "view",
      "type": "function",
      "constant": true
    },
    {
      "inputs": [
        {
          "internalType": "uint256",
          "name": "",
          "type": "uint256"
        }
      ],
      "name": "auctions",
      "outputs": [
        {
          "internalType": "uint256",
          "name": "auctionId",
          "type": "uint256"
        },
        {
          "internalType": "uint256",
          "name": "nftId",
          "type": "uint256"
        },
        {
          "internalType": "address",
          "name": "seller",
          "type": "address"
        },
        {
          "internalType": "uint256",
          "name": "startingPrice",
          "type": "uint256"
        },
        {
          "internalType": "uint64",
          "name": "duration",
          "type": "uint64"
        },
        {
          "internalType": "uint256",
          "name": "startedAt",
          "type": "uint256"
        },
        {
          "internalType": "uint256",
          "name": "endedAt",
          "type": "uint256"
        },
        {
          "internalType": "address",
          "name": "highestBidder",
          "type": "address"
        },
        {
          "internalType": "uint256",
          "name": "highestBid",
          "type": "uint256"
        }
      ],
      "stateMutability": "view",
      "type": "function",
      "constant": true
    },
    {
      "inputs": [],
      "name": "endingPrice",
      "outputs": [
        {
          "internalType": "uint256",
          "name": "",
          "type": "uint256"
        }
      ],
      "stateMutability": "view",
      "type": "function",
      "constant": true
    },
    {
      "inputs": [],
      "name": "offerCount",
      "outputs": [
        {
          "internalType": "uint256",
          "name": "",
          "type": "uint256"
        }
      ],
      "stateMutability": "view",
      "type": "function",
      "constant": true
    },
    {
      "inputs": [
        {
          "internalType": "uint256",
          "name": "",
          "type": "uint256"
        }
      ],
      "name": "offers",
      "outputs": [
        {
          "internalType": "uint256",
          "name": "offerId",
          "type": "uint256"
        },
        {
          "internalType": "uint256",
          "name": "id",
          "type": "uint256"
        },
        {
          "internalType": "address",
          "name": "user",
          "type": "address"
        },
        {
          "internalType": "uint256",
          "name": "price",
          "type": "uint256"
        },
        {
          "internalType": "bool",
          "name": "fulfilled",
          "type": "bool"
        },
        {
          "internalType": "bool",
          "name": "cancelled",
          "type": "bool"
        }
      ],
      "stateMutability": "view",
      "type": "function",
      "constant": true
    },
    {
      "inputs": [
        {
          "internalType": "address",
          "name": "",
          "type": "address"
        }
      ],
      "name": "userFunds",
      "outputs": [
        {
          "internalType": "uint256",
          "name": "",
          "type": "uint256"
        }
      ],
      "stateMutability": "view",
      "type": "function",
      "constant": true
    },
    {
      "inputs": [
        {
          "internalType": "uint256",
          "name": "_id",
          "type": "uint256"
        },
        {
          "internalType": "uint256",
          "name": "_price",
          "type": "uint256"
        }
      ],
      "name": "makeOffer",
      "outputs": [],
      "stateMutability": "nonpayable",
      "type": "function"
    },
    {
      "inputs": [
        {
          "internalType": "uint256",
          "name": "_offerId",
          "type": "uint256"
        }
      ],
      "name": "fillOffer",
      "outputs": [],
      "stateMutability": "payable",
      "type": "function",
      "payable": true
    },
    {
      "inputs": [
        {
          "internalType": "uint256",
          "name": "_offerId",
          "type": "uint256"
        }
      ],
      "name": "cancelOffer",
      "outputs": [],
      "stateMutability": "nonpayable",
      "type": "function"
    },
    {
      "inputs": [],
      "name": "claimFunds",
      "outputs": [],
      "stateMutability": "nonpayable",
      "type": "function"
    },
    {
      "inputs": [
        {
          "internalType": "uint256",
          "name": "_id",
          "type": "uint256"
        }
      ],
      "name": "makeAuction",
      "outputs": [],
      "stateMutability": "payable",
      "type": "function",
      "payable": true
    },
    {
      "inputs": [
        {
          "internalType": "uint256",
          "name": "_auctionId",
          "type": "uint256"
        }
      ],
      "name": "getAuction",
      "outputs": [
        {
          "internalType": "address",
          "name": "",
          "type": "address"
        },
        {
          "internalType": "uint256",
          "name": "",
          "type": "uint256"
        },
        {
          "internalType": "uint256",
          "name": "",
          "type": "uint256"
        },
        {
          "internalType": "uint256",
          "name": "",
          "type": "uint256"
        },
        {
          "internalType": "uint256",
          "name": "",
          "type": "uint256"
        },
        {
          "internalType": "address",
          "name": "",
          "type": "address"
        },
        {
          "internalType": "uint256",
          "name": "",
          "type": "uint256"
        }
      ],
      "stateMutability": "nonpayable",
      "type": "function"
    },
    {
      "inputs": [
        {
          "internalType": "uint256",
          "name": "_auctionId",
          "type": "uint256"
        }
      ],
      "name": "fillBid",
      "outputs": [],
      "stateMutability": "payable",
      "type": "function",
      "payable": true
    },
    {
      "inputs": [
        {
          "internalType": "uint256",
          "name": "_auctionId",
          "type": "uint256"
        }
      ],
      "name": "end",
      "outputs": [],
      "stateMutability": "nonpayable",
      "type": "function"
    },
    {
      "inputs": [
        {
          "internalType": "uint256",
          "name": "amount",
          "type": "uint256"
        },
        {
          "internalType": "uint256",
          "name": "_auctionId",
          "type": "uint256"
        }
      ],
      "name": "autoBookBack",
      "outputs": [],
      "stateMutability": "nonpayable",
      "type": "function"
    },
    {
      "inputs": [
        {
          "internalType": "uint256",
          "name": "_auctionId",
          "type": "uint256"
        }
      ],
      "name": "withdraw",
      "outputs": [],
      "stateMutability": "nonpayable",
      "type": "function"
    }
  ],
  "bytecode": "0x60806040523480156200001157600080fd5b5060405162002699380380620026998339818101604052810190620000379190620000e9565b80600360006101000a81548173ffffffffffffffffffffffffffffffffffffffff021916908373ffffffffffffffffffffffffffffffffffffffff160217905550506200011b565b600080fd5b600073ffffffffffffffffffffffffffffffffffffffff82169050919050565b6000620000b18262000084565b9050919050565b620000c381620000a4565b8114620000cf57600080fd5b50565b600081519050620000e381620000b8565b92915050565b6000602082840312156200010257620001016200007f565b5b60006200011284828501620000d2565b91505092915050565b61256e806200012b6000396000f3fe6080604052600436106100f75760003560e01c80635a67a20d1161008a5780638a72ea6a116100595780638a72ea6a1461031f578063ac30777314610361578063ddf1a54814610378578063ef706adf146103a1576100f8565b80635a67a20d1461025857806378bd7935146102835780638387c6e1146102c657806385dba86114610303576100f8565b80632e1a7d4d116100c65780632e1a7d4d146101b257806342c820d6146101db578063484a1f32146101f7578063571a26a014610213576100f8565b806305b7cdd31461010a5780630ad24528146101335780631115c24d1461015c5780632ad7157314610187576100f8565b5b34801561010457600080fd5b50600080fd5b34801561011657600080fd5b50610131600480360381019061012c919061195d565b6103ca565b005b34801561013f57600080fd5b5061015a6004803603810190610155919061199d565b6105c1565b005b34801561016857600080fd5b506101716108a6565b60405161017e91906119d9565b60405180910390f35b34801561019357600080fd5b5061019c6108ac565b6040516101a991906119d9565b60405180910390f35b3480156101be57600080fd5b506101d960048036038101906101d4919061199d565b6108b2565b005b6101f560048036038101906101f0919061199d565b6109e8565b005b610211600480360381019061020c919061199d565b610b57565b005b34801561021f57600080fd5b5061023a6004803603810190610235919061199d565b610d4d565b60405161024f99989796959493929190611a58565b60405180910390f35b34801561026457600080fd5b5061026d610def565b60405161027a91906119d9565b60405180910390f35b34801561028f57600080fd5b506102aa60048036038101906102a5919061199d565b610df5565b6040516102bd9796959493929190611ae5565b60405180910390f35b3480156102d257600080fd5b506102ed60048036038101906102e89190611b80565b610eef565b6040516102fa91906119d9565b60405180910390f35b61031d6004803603810190610318919061199d565b610f07565b005b34801561032b57600080fd5b506103466004803603810190610341919061199d565b61124f565b60405161035896959493929190611bc8565b60405180910390f35b34801561036d57600080fd5b506103766112c5565b005b34801561038457600080fd5b5061039f600480360381019061039a919061195d565b61148c565b005b3480156103ad57600080fd5b506103c860048036038101906103c3919061199d565b61152e565b005b600360009054906101000a900473ffffffffffffffffffffffffffffffffffffffff1673ffffffffffffffffffffffffffffffffffffffff166323b872dd3330856040518463ffffffff1660e01b815260040161042993929190611c29565b600060405180830381600087803b15801561044357600080fd5b505af1158015610457573d6000803e3d6000fd5b5050505060008081548092919061046d90611c8f565b91905055506040518060c0016040528060005481526020018381526020013373ffffffffffffffffffffffffffffffffffffffff168152602001828152602001600015158152602001600015158152506001600080548152602001908152602001600020600082015181600001556020820151816001015560408201518160020160006101000a81548173ffffffffffffffffffffffffffffffffffffffff021916908373ffffffffffffffffffffffffffffffffffffffff1602179055506060820151816003015560808201518160040160006101000a81548160ff02191690831515021790555060a08201518160040160016101000a81548160ff0219169083151502179055509050507f93e711896d4ef527d199d7e101922e20f918cbb248a0fb0977c52fda24aa1f1d6000548333846000806040516105b596959493929190611bc8565b60405180910390a15050565b60006006600083815260200190815260200160002090508181600001541461061e576040517f08c379a000000000000000000000000000000000000000000000000000000000815260040161061590611d34565b60405180910390fd5b8060060154421015610665576040517f08c379a000000000000000000000000000000000000000000000000000000000815260040161065c90611da0565b60405180910390fd5b600073ffffffffffffffffffffffffffffffffffffffff168160070160009054906101000a900473ffffffffffffffffffffffffffffffffffffffff1673ffffffffffffffffffffffffffffffffffffffff161461077b57600360009054906101000a900473ffffffffffffffffffffffffffffffffffffffff1673ffffffffffffffffffffffffffffffffffffffff166323b872dd308360070160009054906101000a900473ffffffffffffffffffffffffffffffffffffffff1684600001546040518463ffffffff1660e01b815260040161074493929190611c29565b600060405180830381600087803b15801561075e57600080fd5b505af1158015610772573d6000803e3d6000fd5b50505050610835565b600360009054906101000a900473ffffffffffffffffffffffffffffffffffffffff1673ffffffffffffffffffffffffffffffffffffffff166323b872dd308360020160009054906101000a900473ffffffffffffffffffffffffffffffffffffffff1684600001546040518463ffffffff1660e01b815260040161080293929190611c29565b600060405180830381600087803b15801561081c57600080fd5b505af1158015610830573d6000803e3d6000fd5b505050505b7fe40da2ed231723b222a7ba7da994c3afc3f83a51da76262083e38841e2da09828160000154826001015483600801548460070160009054906101000a900473ffffffffffffffffffffffffffffffffffffffff1660405161089a9493929190611dc0565b60405180910390a15050565b60005481565b60045481565b60006006600083815260200190815260200160002090508060070160009054906101000a900473ffffffffffffffffffffffffffffffffffffffff1673ffffffffffffffffffffffffffffffffffffffff163373ffffffffffffffffffffffffffffffffffffffff160361092557600080fd5b600061094360066000858152602001908152602001600020336117c2565b90506109636006600085815260200190815260200160002033600061180e565b3373ffffffffffffffffffffffffffffffffffffffff166108fc829081150290604051600060405180830381858888f193505050501580156109a9573d6000803e3d6000fd5b507f7d7570b046e5ead3a4f3fbc9fa2445113625a1e79823776146316bafed6b8cc533826040516109db929190611e05565b60405180910390a1505050565b600060066000838152602001908152602001600020905081816000015414610a45576040517f08c379a0000000000000000000000000000000000000000000000000000000008152600401610a3c90611d34565b60405180910390fd5b80600601544210610a8b576040517f08c379a0000000000000000000000000000000000000000000000000000000008152600401610a8290611e7a565b60405180910390fd5b600034905081600801548111610ad6576040517f08c379a0000000000000000000000000000000000000000000000000000000008152600401610acd90611ee6565b60405180910390fd5b6000610ae283336117c2565b9050610af08333600061180e565b610afa818561148c565b610b0583338461180e565b338360070160006101000a81548173ffffffffffffffffffffffffffffffffffffffff021916908373ffffffffffffffffffffffffffffffffffffffff16021790555081836008018190555050505050565b600360009054906101000a900473ffffffffffffffffffffffffffffffffffffffff1673ffffffffffffffffffffffffffffffffffffffff166323b872dd3330846040518463ffffffff1660e01b8152600401610bb693929190611c29565b600060405180830381600087803b158015610bd057600080fd5b505af1158015610be4573d6000803e3d6000fd5b5050505060046000815480929190610bfb90611c8f565b9190505550600060066000600454815260200190815260200160002090506004548160000181905550818160010181905550338160020160006101000a81548173ffffffffffffffffffffffffffffffffffffffff021916908373ffffffffffffffffffffffffffffffffffffffff1602179055506001816003018190555061012c8160040160006101000a81548167ffffffffffffffff021916908367ffffffffffffffff16021790555042816005018190555061012c42610cbe9190611f06565b81600601819055507fa9c8dfcda5664a5a124c713e386da27de87432d5b668e79458501eb296389ba7600454836006600060045481526020019081526020016000206003015460066000600454815260200190815260200160002060040160009054906101000a900467ffffffffffffffff16604051610d419493929190611f97565b60405180910390a15050565b60066020528060005260406000206000915090508060000154908060010154908060020160009054906101000a900473ffffffffffffffffffffffffffffffffffffffff16908060030154908060040160009054906101000a900467ffffffffffffffff16908060050154908060060154908060070160009054906101000a900473ffffffffffffffffffffffffffffffffffffffff16908060080154905089565b60055481565b6000806000806000806000610e0988611859565b6000600660008a8152602001908152602001600020905060008160000154905060008260020160009054906101000a900473ffffffffffffffffffffffffffffffffffffffff16905060008360030154905060008460040160009054906101000a900467ffffffffffffffff1667ffffffffffffffff16905060008560050154905060008660060154905060008760070160009054906101000a900473ffffffffffffffffffffffffffffffffffffffff169050600088600801549050868686868686869f509f509f509f509f509f509f50505050505050505050919395979092949650565b60026020528060005260406000206000915090505481565b600060016000838152602001908152602001600020905081816000015414610f64576040517f08c379a0000000000000000000000000000000000000000000000000000000008152600401610f5b90612028565b60405180910390fd5b3373ffffffffffffffffffffffffffffffffffffffff168160020160009054906101000a900473ffffffffffffffffffffffffffffffffffffffff1673ffffffffffffffffffffffffffffffffffffffff1603610ff6576040517f08c379a0000000000000000000000000000000000000000000000000000000008152600401610fed906120ba565b60405180910390fd5b8060040160009054906101000a900460ff1615611048576040517f08c379a000000000000000000000000000000000000000000000000000000000815260040161103f9061214c565b60405180910390fd5b8060040160019054906101000a900460ff161561109a576040517f08c379a0000000000000000000000000000000000000000000000000000000008152600401611091906121de565b60405180910390fd5b806003015434146110e0576040517f08c379a00000000000000000000000000000000000000000000000000000000081526004016110d790612270565b60405180910390fd5b600360009054906101000a900473ffffffffffffffffffffffffffffffffffffffff1673ffffffffffffffffffffffffffffffffffffffff166323b872dd303384600101546040518463ffffffff1660e01b815260040161114393929190611c29565b600060405180830381600087803b15801561115d57600080fd5b505af1158015611171573d6000803e3d6000fd5b5050505060018160040160006101000a81548160ff02191690831515021790555034600260008360020160009054906101000a900473ffffffffffffffffffffffffffffffffffffffff1673ffffffffffffffffffffffffffffffffffffffff1673ffffffffffffffffffffffffffffffffffffffff16815260200190815260200160002060008282546112059190611f06565b925050819055507fd9157c065213ada613694e84b1e27fe2efd62d85c6b82bd6c842a4999491e72a8282600101543360405161124393929190612290565b60405180910390a15050565b60016020528060005260406000206000915090508060000154908060010154908060020160009054906101000a900473ffffffffffffffffffffffffffffffffffffffff16908060030154908060040160009054906101000a900460ff16908060040160019054906101000a900460ff16905086565b6000600260003373ffffffffffffffffffffffffffffffffffffffff1673ffffffffffffffffffffffffffffffffffffffff1681526020019081526020016000205411611347576040517f08c379a000000000000000000000000000000000000000000000000000000000815260040161133e90612339565b60405180910390fd5b3373ffffffffffffffffffffffffffffffffffffffff166108fc600260003373ffffffffffffffffffffffffffffffffffffffff1673ffffffffffffffffffffffffffffffffffffffff168152602001908152602001600020549081150290604051600060405180830381858888f193505050501580156113cc573d6000803e3d6000fd5b507f4f0554190111f93f8c2ccef2cc41473f187d7f29ff5a5c308ca41f9dfe4e989a33600260003373ffffffffffffffffffffffffffffffffffffffff1673ffffffffffffffffffffffffffffffffffffffff1681526020019081526020016000205460405161143d929190611e05565b60405180910390a16000600260003373ffffffffffffffffffffffffffffffffffffffff1673ffffffffffffffffffffffffffffffffffffffff16815260200190815260200160002081905550565b6114aa6006600083815260200190815260200160002033600061180e565b3373ffffffffffffffffffffffffffffffffffffffff166108fc839081150290604051600060405180830381858888f193505050501580156114f0573d6000803e3d6000fd5b507f7d7570b046e5ead3a4f3fbc9fa2445113625a1e79823776146316bafed6b8cc53383604051611522929190611e05565b60405180910390a15050565b60006001600083815260200190815260200160002090508181600001541461158b576040517f08c379a000000000000000000000000000000000000000000000000000000000815260040161158290612028565b60405180910390fd5b3373ffffffffffffffffffffffffffffffffffffffff168160020160009054906101000a900473ffffffffffffffffffffffffffffffffffffffff1673ffffffffffffffffffffffffffffffffffffffff161461161d576040517f08c379a0000000000000000000000000000000000000000000000000000000008152600401611614906123cb565b60405180910390fd5b600015158160040160009054906101000a900460ff16151514611675576040517f08c379a000000000000000000000000000000000000000000000000000000000815260040161166c9061245d565b60405180910390fd5b600015158160040160019054906101000a900460ff161515146116cd576040517f08c379a00000000000000000000000000000000000000000000000000000000081526004016116c4906124ef565b60405180910390fd5b600360009054906101000a900473ffffffffffffffffffffffffffffffffffffffff1673ffffffffffffffffffffffffffffffffffffffff166323b872dd303384600101546040518463ffffffff1660e01b815260040161173093929190611c29565b600060405180830381600087803b15801561174a57600080fd5b505af115801561175e573d6000803e3d6000fd5b5050505060018160040160016101000a81548160ff0219169083151502179055507f5b166b4d0498ff8c4719999cb6154c5d197e6f020f9fbfcf9d347f84576cfab7828260010154336040516117b693929190612290565b60405180910390a15050565b60008260090160008373ffffffffffffffffffffffffffffffffffffffff1673ffffffffffffffffffffffffffffffffffffffff16815260200190815260200160002054905092915050565b808360090160008473ffffffffffffffffffffffffffffffffffffffff1673ffffffffffffffffffffffffffffffffffffffff16815260200190815260200160002081905550505050565b6000600660008381526020019081526020016000209050600061187c82336117c2565b90506000811180156118de57503373ffffffffffffffffffffffffffffffffffffffff168260070160009054906101000a900473ffffffffffffffffffffffffffffffffffffffff1673ffffffffffffffffffffffffffffffffffffffff1614155b1561191d577fee908ba8762ef5f2fa9de38ef043b41e9f638b64fa9b8d3e2218cb28df4e6b74833360405161191492919061250f565b60405180910390a15b505050565b600080fd5b6000819050919050565b61193a81611927565b811461194557600080fd5b50565b60008135905061195781611931565b92915050565b6000806040838503121561197457611973611922565b5b600061198285828601611948565b925050602061199385828601611948565b9150509250929050565b6000602082840312156119b3576119b2611922565b5b60006119c184828501611948565b91505092915050565b6119d381611927565b82525050565b60006020820190506119ee60008301846119ca565b92915050565b600073ffffffffffffffffffffffffffffffffffffffff82169050919050565b6000611a1f826119f4565b9050919050565b611a2f81611a14565b82525050565b600067ffffffffffffffff82169050919050565b611a5281611a35565b82525050565b600061012082019050611a6e600083018c6119ca565b611a7b602083018b6119ca565b611a88604083018a611a26565b611a9560608301896119ca565b611aa26080830188611a49565b611aaf60a08301876119ca565b611abc60c08301866119ca565b611ac960e0830185611a26565b611ad76101008301846119ca565b9a9950505050505050505050565b600060e082019050611afa600083018a611a26565b611b0760208301896119ca565b611b1460408301886119ca565b611b2160608301876119ca565b611b2e60808301866119ca565b611b3b60a0830185611a26565b611b4860c08301846119ca565b98975050505050505050565b611b5d81611a14565b8114611b6857600080fd5b50565b600081359050611b7a81611b54565b92915050565b600060208284031215611b9657611b95611922565b5b6000611ba484828501611b6b565b91505092915050565b60008115159050919050565b611bc281611bad565b82525050565b600060c082019050611bdd60008301896119ca565b611bea60208301886119ca565b611bf76040830187611a26565b611c0460608301866119ca565b611c116080830185611bb9565b611c1e60a0830184611bb9565b979650505050505050565b6000606082019050611c3e6000830186611a26565b611c4b6020830185611a26565b611c5860408301846119ca565b949350505050565b7f4e487b7100000000000000000000000000000000000000000000000000000000600052601160045260246000fd5b6000611c9a82611927565b91507fffffffffffffffffffffffffffffffffffffffffffffffffffffffffffffffff8203611ccc57611ccb611c60565b5b600182019050919050565b600082825260208201905092915050565b7f5468652061756374696f6e206d75737420657869737400000000000000000000600082015250565b6000611d1e601683611cd7565b9150611d2982611ce8565b602082019050919050565b60006020820190508181036000830152611d4d81611d11565b9050919050565b7f6e6f7420656e6465640000000000000000000000000000000000000000000000600082015250565b6000611d8a600983611cd7565b9150611d9582611d54565b602082019050919050565b60006020820190508181036000830152611db981611d7d565b9050919050565b6000608082019050611dd560008301876119ca565b611de260208301866119ca565b611def60408301856119ca565b611dfc6060830184611a26565b95945050505050565b6000604082019050611e1a6000830185611a26565b611e2760208301846119ca565b9392505050565b7f656e646564000000000000000000000000000000000000000000000000000000600082015250565b6000611e64600583611cd7565b9150611e6f82611e2e565b602082019050919050565b60006020820190508181036000830152611e9381611e57565b9050919050565b7f76616c7565203c20686967686573740000000000000000000000000000000000600082015250565b6000611ed0600f83611cd7565b9150611edb82611e9a565b602082019050919050565b60006020820190508181036000830152611eff81611ec3565b9050919050565b6000611f1182611927565b9150611f1c83611927565b9250827fffffffffffffffffffffffffffffffffffffffffffffffffffffffffffffffff03821115611f5157611f50611c60565b5b828201905092915050565b6000819050919050565b6000611f81611f7c611f7784611a35565b611f5c565b611927565b9050919050565b611f9181611f66565b82525050565b6000608082019050611fac60008301876119ca565b611fb960208301866119ca565b611fc660408301856119ca565b611fd36060830184611f88565b95945050505050565b7f546865206f66666572206d757374206578697374000000000000000000000000600082015250565b6000612012601483611cd7565b915061201d82611fdc565b602082019050919050565b6000602082019050818103600083015261204181612005565b9050919050565b7f546865206f776e6572206f6620746865206f666665722063616e6e6f7420666960008201527f6c6c206974000000000000000000000000000000000000000000000000000000602082015250565b60006120a4602583611cd7565b91506120af82612048565b604082019050919050565b600060208201905081810360008301526120d381612097565b9050919050565b7f416e206f666665722063616e6e6f742062652066756c66696c6c65642074776960008201527f6365000000000000000000000000000000000000000000000000000000000000602082015250565b6000612136602283611cd7565b9150612141826120da565b604082019050919050565b6000602082019050818103600083015261216581612129565b9050919050565b7f412063616e63656c6c6564206f666665722063616e6e6f742062652066756c6660008201527f696c6c6564000000000000000000000000000000000000000000000000000000602082015250565b60006121c8602583611cd7565b91506121d38261216c565b604082019050919050565b600060208201905081810360008301526121f7816121bb565b9050919050565b7f5468652045544820616d6f756e742073686f756c64206d61746368207769746860008201527f20746865204e4654205072696365000000000000000000000000000000000000602082015250565b600061225a602e83611cd7565b9150612265826121fe565b604082019050919050565b600060208201905081810360008301526122898161224d565b9050919050565b60006060820190506122a560008301866119ca565b6122b260208301856119ca565b6122bf6040830184611a26565b949350505050565b7f54686973207573657220686173206e6f2066756e647320746f20626520636c6160008201527f696d656400000000000000000000000000000000000000000000000000000000602082015250565b6000612323602483611cd7565b915061232e826122c7565b604082019050919050565b6000602082019050818103600083015261235281612316565b9050919050565b7f546865206f666665722063616e206f6e6c792062652063616e63656c6564206260008201527f7920746865206f776e6572000000000000000000000000000000000000000000602082015250565b60006123b5602b83611cd7565b91506123c082612359565b604082019050919050565b600060208201905081810360008301526123e4816123a8565b9050919050565b7f412066756c66696c6c6564206f666665722063616e6e6f742062652063616e6360008201527f656c6c6564000000000000000000000000000000000000000000000000000000602082015250565b6000612447602583611cd7565b9150612452826123eb565b604082019050919050565b600060208201905081810360008301526124768161243a565b9050919050565b7f416e206f666665722063616e6e6f742062652063616e63656c6c65642074776960008201527f6365000000000000000000000000000000000000000000000000000000000000602082015250565b60006124d9602283611cd7565b91506124e48261247d565b604082019050919050565b60006020820190508181036000830152612508816124cc565b9050919050565b600060408201905061252460008301856119ca565b6125316020830184611a26565b939250505056fea264697066735822122000ccf05115f102c45f61c501a8e79f90e8e2aca7bbdb8a0811184d7c2538508364736f6c634300080d0033",
  "immutableReferences": {},
  "source": "// SPDX-License-Identifier: MIT\npragma solidity ^0.8.0;\n\nimport \"./NFTCollection.sol\";\n\ncontract NFTMarketplace {\n    uint256 public offerCount;\n    mapping(uint256 => _Offer) public offers;\n    mapping(address => uint256) public userFunds;\n    NFTCollection nftCollection;\n\n    // Offers allow other users (not the owner) to buy the NFT at a fixed price.\n    struct _Offer {\n        uint256 offerId;\n        uint256 id;\n        address user;\n        uint256 price;\n        bool fulfilled;\n        bool cancelled;\n    }\n\n    event Offer(\n        uint256 offerId,\n        uint256 id,\n        address user,\n        uint256 price,\n        bool fulfilled,\n        bool cancelled\n    );\n\n    event OfferFilled(uint256 offerId, uint256 id, address newOwner);\n    event OfferCancelled(uint256 offerId, uint256 id, address owner);\n    event ClaimFunds(address user, uint256 amount);\n\n    constructor(address _nftCollection) {\n        nftCollection = NFTCollection(_nftCollection);\n    }\n\n    /// @notice Sets the price at which the NFT can be bought from other users.\n    /// @param _id The token id of the NFT.\n    /// @param _price The price at which the NFT can be bought.\n    function makeOffer(uint256 _id, uint256 _price) public {\n        nftCollection.transferFrom(msg.sender, address(this), _id);\n        offerCount++;\n        offers[offerCount] = _Offer(\n            offerCount,\n            _id,\n            msg.sender,\n            _price,\n            false,\n            false\n        );\n        emit Offer(offerCount, _id, msg.sender, _price, false, false);\n    }\n\n    /// @notice The sender buys a NFT from the offers list.\n    /// @param _offerId The id of the offer which the user wants to buy.\n    function fillOffer(uint256 _offerId) public payable {\n        _Offer storage _offer = offers[_offerId];\n        require(_offer.offerId == _offerId, \"The offer must exist\");\n        require(\n            _offer.user != msg.sender,\n            \"The owner of the offer cannot fill it\"\n        );\n        require(!_offer.fulfilled, \"An offer cannot be fulfilled twice\");\n        require(!_offer.cancelled, \"A cancelled offer cannot be fulfilled\");\n        require(\n            msg.value == _offer.price,\n            \"The ETH amount should match with the NFT Price\"\n        );\n        nftCollection.transferFrom(address(this), msg.sender, _offer.id);\n        _offer.fulfilled = true;\n        userFunds[_offer.user] += msg.value;\n        emit OfferFilled(_offerId, _offer.id, msg.sender);\n    }\n\n    /// @notice Cancel an offer from the offers list. Only available to the owner of the offer.\n    /// @param _offerId The id of the offer which the user wants to cancel.\n    function cancelOffer(uint256 _offerId) public {\n        _Offer storage _offer = offers[_offerId];\n        require(_offer.offerId == _offerId, \"The offer must exist\");\n        require(\n            _offer.user == msg.sender,\n            \"The offer can only be canceled by the owner\"\n        );\n        require(\n            _offer.fulfilled == false,\n            \"A fulfilled offer cannot be cancelled\"\n        );\n        require(\n            _offer.cancelled == false,\n            \"An offer cannot be cancelled twice\"\n        );\n        nftCollection.transferFrom(address(this), msg.sender, _offer.id);\n        _offer.cancelled = true;\n        emit OfferCancelled(_offerId, _offer.id, msg.sender);\n    }\n\n    /// @notice The user can withdraw their funds made by selling NFT.\n    /// @dev Not implemented in UI yet.\n    function claimFunds() public {\n        require(\n            userFunds[msg.sender] > 0,\n            \"This user has no funds to be claimed\"\n        );\n        payable(msg.sender).transfer(userFunds[msg.sender]);\n        emit ClaimFunds(msg.sender, userFunds[msg.sender]);\n        userFunds[msg.sender] = 0;\n    }\n\n    // Fallback: reverts if Ether is sent to this smart-contract by mistake\n    fallback() external {\n        revert();\n    }\n\n    //<-------------------------Just import Contracts as a whole---------------------------------------->\n\n    uint256 public auctionCount;\n    uint256 public endingPrice;\n    mapping(uint256 => _Auction) public auctions;\n\n    struct _Auction {\n        // Id of auction\n        uint256 auctionId;\n        //Id of NFT\n        uint256 nftId;\n        // Current owner of NFT\n        address seller;\n        // Price at beginning of auction\n        uint256 startingPrice;\n        // Duration (in seconds) of auction\n        uint64 duration;\n        // Time when auction started\n        // NOTE: 0 if this auction has been concluded\n        uint256 startedAt;\n        //end time of auction\n        uint256 endedAt;\n        //current state of auction\n        //bool isActive;\n        //current highest bidder\n        address highestBidder;\n        //current highest bid\n        uint256 highestBid;\n        mapping(address => uint256) bids;\n    }\n\n    event AuctionCreated(\n        uint256 auctionId,\n        uint256 tokenId,\n        uint256 startingPrice,\n        uint256 duration\n    );\n    event AuctionSuccessful(\n        uint256 auctionId,\n        uint256 tokenId,\n        uint256 totalPrice,\n        address winner\n    );\n    event AuctionCancelled(uint256 tokenId); //not implemented yet?\n    event End(address bidder, uint256 withdrawalAmount); //not implemented yet?\n    event GotOverbidden(uint256 auctionId, address user);\n/** getBids returns cumulated bids of the bidder */\n    function getBids(_Auction storage auction, address bidder)\n        internal\n        returns (uint256)\n    {\n        return auction.bids[bidder];\n    }\n/** setBids updates bids for bidder  */\n    function setBids(\n        _Auction storage auction,\n        address bidder,\n        uint256 bid\n    ) internal {\n        auction.bids[bidder] = bid;\n    }\n\n    function checkIfHighestBidder(uint256 _auctionId) internal {\n        _Auction storage _auction = auctions[_auctionId];\n        uint256 currentCummulatedBids = getBids(_auction, msg.sender);\n        if (currentCummulatedBids > 0 && _auction.highestBidder != msg.sender)\n            emit GotOverbidden(_auctionId, msg.sender);\n    }\n/** make auction creates the auction struct and starts the timer */\n    function makeAuction(uint256 _id) public payable {\n        //require(msg.sender == seller, \"not seller\");\n        nftCollection.transferFrom(msg.sender, address(this), _id);\n        auctionCount++;\n        _Auction storage _auction = auctions[auctionCount];\n        _auction.auctionId = auctionCount;\n        _auction.nftId = _id;\n        _auction.seller = msg.sender;\n        _auction.startingPrice = 1;\n        //duration fixed 5 minutes = 300 seconds\n        _auction.duration = 300;\n        _auction.startedAt = block.timestamp;\n        _auction.endedAt = block.timestamp + 300;\n        //true,\n\n        emit AuctionCreated(\n            auctionCount,\n            _id,\n            auctions[auctionCount].startingPrice,\n            auctions[auctionCount].duration\n        );\n    }\n\n/** getAuction is used to get details about the auction and check if the current user has been overbidden (if true emit Event) */\n    function getAuction(uint256 _auctionId)\n        public\n        returns (\n            address,\n            uint256,\n            uint256,\n            uint256,\n            uint256,\n            address,\n            uint256\n        )\n    {\n        checkIfHighestBidder(_auctionId);\n        _Auction storage _auction = auctions[_auctionId];\n        uint256 auctionId = _auction.auctionId; //not neccessary\n        address auctionSeller = _auction.seller;\n        uint256 auctionStartingPrice = _auction.startingPrice;\n        //duration fixed 5 minutes = 300 seconds\n        uint256 auctionDuration = _auction.duration;\n        uint256 auctionStartedAt = _auction.startedAt;\n        uint256 auctionEndetAt = _auction.endedAt;\n        address highestBidder = _auction.highestBidder;\n        uint256 highestBid = _auction.highestBid;\n\n        return (\n            auctionSeller,\n            auctionStartingPrice,\n            auctionDuration,\n            auctionStartedAt,\n            auctionEndetAt,\n            highestBidder,\n            highestBid\n        );\n    }\n\n/** fillBid is used to update the auction struct, if someone overbid the current bid */\n    function fillBid(uint256 _auctionId) public payable {\n        _Auction storage _auction = auctions[_auctionId];\n        require(_auction.auctionId == _auctionId, \"The auction must exist\");\n        require(block.timestamp < _auction.endedAt, \"ended\");\n        //create a new Bid for this auction\n        // _Bids storage bids = bids[_auctionId];\n\n        // calculate the user's total bid based on the current amount they've sent to the contract plus whatever has\n        // been sent with this transaction\n        uint256 newBid = msg.value;\n        require(newBid > _auction.highestBid, \"value < highest\");\n        uint256 cumulatedBids = getBids(_auction, msg.sender);\n        //set current Bids on 0 to counter re-entry attacks\n        setBids(_auction, msg.sender, 0);\n        //book back older bids in case\n        autoBookBack(cumulatedBids, _auctionId);\n        //set current Bids on new Bid\n        setBids(_auction, msg.sender, newBid);\n        _auction.highestBidder = msg.sender;\n        _auction.highestBid = newBid;\n    }\n\n/** end is called after the auction has ended  if someone bid on the nft, it is transferred to the highest bidder, else transferred back to the seller */\n    function end(uint256 _auctionId) external {\n        _Auction storage _auction = auctions[_auctionId];\n        require(_auction.auctionId == _auctionId, \"The auction must exist\");\n        require(block.timestamp >= _auction.endedAt, \"not ended\");\n        if (_auction.highestBidder != address(0)) {\n            nftCollection.transferFrom(\n                address(this),\n                _auction.highestBidder,\n                _auction.auctionId\n            );\n            //seller.transfer(highestBid);\n        } else {\n            nftCollection.transferFrom(\n                address(this),\n                _auction.seller,\n                _auction.auctionId\n            );\n        }\n\n        emit AuctionSuccessful(\n            _auction.auctionId,\n            _auction.nftId,\n            _auction.highestBid,\n            _auction.highestBidder\n        );\n    }\n\n/** autoBookBack books back all transfered ether of previous bids in case a new bid is made */\n    function autoBookBack(uint256 amount, uint256 _auctionId) public {\n        //again set Bids on 0 in case of re-entry attack\n        setBids(auctions[_auctionId], msg.sender, 0);\n        payable(msg.sender).transfer(amount);\n\n        emit End(msg.sender, amount);\n    }\n/** withdraw allows overbidden users to withdraw their cumulated bids  */\n    function withdraw(uint256 _auctionId) public {\n        _Auction storage _auction = auctions[_auctionId];\n        require(msg.sender != _auction.highestBidder);\n        uint256 amount = getBids(auctions[_auctionId], msg.sender);\n        setBids(auctions[_auctionId], msg.sender, 0);\n        payable(msg.sender).transfer(amount);\n\n        emit End(msg.sender, amount);\n    }\n\n    // require(\n    //     _offer.user != msg.sender,\n    //     \"The owner of the offer cannot fill it\"\n    // );\n    // require(!_offer.fulfilled, \"An offer cannot be fulfilled twice\");\n    // require(!_offer.cancelled, \"A cancelled offer cannot be fulfilled\");\n    // require(\n    //     msg.value == _offer.price,\n    //     \"The ETH amount should match with the NFT Price\"\n    // );\n    // nftCollection.transferFrom(address(this), msg.sender, _offer.id);\n    // _offer.fulfilled = true;\n    // userFunds[_offer.user] += msg.value;\n    // emit OfferFilled(_offerId, _offer.id, msg.sender);\n}\n",
  "sourcePath": "D:\\Softwareprojekte Uni\\hackathon\\nft-marketplace\\src\\contracts\\NFTMarketplace.sol",
  "compiler": {
    "name": "solc",
    "version": "0.8.13+commit.abaa5c0e.Emscripten.clang"
  },
  "schemaVersion": "3.4.6",
  "updatedAt": "2022-04-27T07:55:20.787Z",
  "networkType": "ethereum",
  "devdoc": {
    "kind": "dev",
    "methods": {
      "cancelOffer(uint256)": {
        "params": {
          "_offerId": "The id of the offer which the user wants to cancel."
        }
      },
      "claimFunds()": {
        "details": "Not implemented in UI yet."
      },
      "fillOffer(uint256)": {
        "params": {
          "_offerId": "The id of the offer which the user wants to buy."
        }
      },
      "makeOffer(uint256,uint256)": {
        "params": {
          "_id": "The token id of the NFT.",
          "_price": "The price at which the NFT can be bought."
        }
      }
    },
    "version": 1
  },
  "userdoc": {
    "kind": "user",
    "methods": {
      "autoBookBack(uint256,uint256)": {
        "notice": "autoBookBack books back all transfered ether of previous bids in case a new bid is made "
      },
      "cancelOffer(uint256)": {
        "notice": "Cancel an offer from the offers list. Only available to the owner of the offer."
      },
      "claimFunds()": {
        "notice": "The user can withdraw their funds made by selling NFT."
      },
      "end(uint256)": {
        "notice": "end is called after the auction has ended  if someone bid on the nft, it is transferred to the highest bidder, else transferred back to the seller "
      },
      "fillBid(uint256)": {
        "notice": "fillBid is used to update the auction struct, if someone overbid the current bid "
      },
      "fillOffer(uint256)": {
        "notice": "The sender buys a NFT from the offers list."
      },
      "getAuction(uint256)": {
        "notice": "getAuction is used to get details about the auction and check if the current user has been overbidden (if true emit Event) "
      },
      "makeAuction(uint256)": {
        "notice": "make auction creates the auction struct and starts the timer "
      },
      "makeOffer(uint256,uint256)": {
        "notice": "Sets the price at which the NFT can be bought from other users."
      },
      "withdraw(uint256)": {
        "notice": "withdraw allows overbidden users to withdraw their cumulated bids  "
      }
    },
    "version": 1
  }
}