{
  "contractName": "NFTMarketplace",
  "abi": [
    {
      "inputs": [
        {
          "internalType": "address",
          "name": "_nftCollection",
          "type": "address"
        }
      ],
      "stateMutability": "nonpayable",
      "type": "constructor"
    },
    {
      "anonymous": false,
      "inputs": [
        {
          "indexed": false,
          "internalType": "uint256",
          "name": "tokenId",
          "type": "uint256"
        }
      ],
      "name": "AuctionCancelled",
      "type": "event"
    },
    {
      "anonymous": false,
      "inputs": [
        {
          "indexed": false,
          "internalType": "uint256",
          "name": "auctionId",
          "type": "uint256"
        },
        {
          "indexed": false,
          "internalType": "uint256",
          "name": "tokenId",
          "type": "uint256"
        },
        {
          "indexed": false,
          "internalType": "uint256",
          "name": "startingPrice",
          "type": "uint256"
        },
        {
          "indexed": false,
          "internalType": "uint256",
          "name": "duration",
          "type": "uint256"
        }
      ],
      "name": "AuctionCreated",
      "type": "event"
    },
    {
      "anonymous": false,
      "inputs": [
        {
          "indexed": false,
          "internalType": "uint256",
          "name": "auctionId",
          "type": "uint256"
        },
        {
          "indexed": false,
          "internalType": "uint256",
          "name": "tokenId",
          "type": "uint256"
        },
        {
          "indexed": false,
          "internalType": "uint256",
          "name": "totalPrice",
          "type": "uint256"
        },
        {
          "indexed": false,
          "internalType": "address",
          "name": "winner",
          "type": "address"
        }
      ],
      "name": "AuctionSuccessful",
      "type": "event"
    },
    {
      "anonymous": false,
      "inputs": [
        {
          "indexed": false,
          "internalType": "address",
          "name": "user",
          "type": "address"
        },
        {
          "indexed": false,
          "internalType": "uint256",
          "name": "amount",
          "type": "uint256"
        }
      ],
      "name": "ClaimFunds",
      "type": "event"
    },
    {
      "anonymous": false,
      "inputs": [
        {
          "indexed": false,
          "internalType": "uint256",
          "name": "auctionId",
          "type": "uint256"
        },
        {
          "indexed": false,
          "internalType": "address",
          "name": "user",
          "type": "address"
        }
      ],
      "name": "GotOverbidden",
      "type": "event"
    },
    {
      "anonymous": false,
      "inputs": [
        {
          "indexed": false,
          "internalType": "uint256",
          "name": "offerId",
          "type": "uint256"
        },
        {
          "indexed": false,
          "internalType": "uint256",
          "name": "id",
          "type": "uint256"
        },
        {
          "indexed": false,
          "internalType": "address",
          "name": "user",
          "type": "address"
        },
        {
          "indexed": false,
          "internalType": "uint256",
          "name": "price",
          "type": "uint256"
        },
        {
          "indexed": false,
          "internalType": "bool",
          "name": "fulfilled",
          "type": "bool"
        },
        {
          "indexed": false,
          "internalType": "bool",
          "name": "cancelled",
          "type": "bool"
        }
      ],
      "name": "Offer",
      "type": "event"
    },
    {
      "anonymous": false,
      "inputs": [
        {
          "indexed": false,
          "internalType": "uint256",
          "name": "offerId",
          "type": "uint256"
        },
        {
          "indexed": false,
          "internalType": "uint256",
          "name": "id",
          "type": "uint256"
        },
        {
          "indexed": false,
          "internalType": "address",
          "name": "owner",
          "type": "address"
        }
      ],
      "name": "OfferCancelled",
      "type": "event"
    },
    {
      "anonymous": false,
      "inputs": [
        {
          "indexed": false,
          "internalType": "uint256",
          "name": "offerId",
          "type": "uint256"
        },
        {
          "indexed": false,
          "internalType": "uint256",
          "name": "id",
          "type": "uint256"
        },
        {
          "indexed": false,
          "internalType": "address",
          "name": "newOwner",
          "type": "address"
        }
      ],
      "name": "OfferFilled",
      "type": "event"
    },
    {
      "stateMutability": "nonpayable",
      "type": "fallback"
    },
    {
      "inputs": [],
      "name": "auctionCount",
      "outputs": [
        {
          "internalType": "uint256",
          "name": "",
          "type": "uint256"
        }
      ],
      "stateMutability": "view",
      "type": "function",
      "constant": true
    },
    {
      "inputs": [
        {
          "internalType": "uint256",
          "name": "",
          "type": "uint256"
        }
      ],
      "name": "auctions",
      "outputs": [
        {
          "internalType": "uint256",
          "name": "auctionId",
          "type": "uint256"
        },
        {
          "internalType": "uint256",
          "name": "nftId",
          "type": "uint256"
        },
        {
          "internalType": "address",
          "name": "seller",
          "type": "address"
        },
        {
          "internalType": "uint256",
          "name": "startingPrice",
          "type": "uint256"
        },
        {
          "internalType": "uint64",
          "name": "duration",
          "type": "uint64"
        },
        {
          "internalType": "uint256",
          "name": "startedAt",
          "type": "uint256"
        },
        {
          "internalType": "uint256",
          "name": "endedAt",
          "type": "uint256"
        },
        {
          "internalType": "bool",
          "name": "isActive",
          "type": "bool"
        },
        {
          "internalType": "address",
          "name": "highestBidder",
          "type": "address"
        },
        {
          "internalType": "uint256",
          "name": "highestBid",
          "type": "uint256"
        }
      ],
      "stateMutability": "view",
      "type": "function",
      "constant": true
    },
    {
      "inputs": [],
      "name": "offerCount",
      "outputs": [
        {
          "internalType": "uint256",
          "name": "",
          "type": "uint256"
        }
      ],
      "stateMutability": "view",
      "type": "function",
      "constant": true
    },
    {
      "inputs": [
        {
          "internalType": "uint256",
          "name": "",
          "type": "uint256"
        }
      ],
      "name": "offers",
      "outputs": [
        {
          "internalType": "uint256",
          "name": "offerId",
          "type": "uint256"
        },
        {
          "internalType": "uint256",
          "name": "id",
          "type": "uint256"
        },
        {
          "internalType": "address",
          "name": "user",
          "type": "address"
        },
        {
          "internalType": "uint256",
          "name": "price",
          "type": "uint256"
        },
        {
          "internalType": "bool",
          "name": "fulfilled",
          "type": "bool"
        },
        {
          "internalType": "bool",
          "name": "cancelled",
          "type": "bool"
        }
      ],
      "stateMutability": "view",
      "type": "function",
      "constant": true
    },
    {
      "inputs": [
        {
          "internalType": "address",
          "name": "",
          "type": "address"
        }
      ],
      "name": "userFunds",
      "outputs": [
        {
          "internalType": "uint256",
          "name": "",
          "type": "uint256"
        }
      ],
      "stateMutability": "view",
      "type": "function",
      "constant": true
    },
    {
      "inputs": [
        {
          "internalType": "uint256",
          "name": "_id",
          "type": "uint256"
        },
        {
          "internalType": "uint256",
          "name": "_price",
          "type": "uint256"
        }
      ],
      "name": "makeOffer",
      "outputs": [],
      "stateMutability": "nonpayable",
      "type": "function"
    },
    {
      "inputs": [
        {
          "internalType": "uint256",
          "name": "_offerId",
          "type": "uint256"
        }
      ],
      "name": "fillOffer",
      "outputs": [],
      "stateMutability": "payable",
      "type": "function",
      "payable": true
    },
    {
      "inputs": [
        {
          "internalType": "uint256",
          "name": "_offerId",
          "type": "uint256"
        }
      ],
      "name": "cancelOffer",
      "outputs": [],
      "stateMutability": "nonpayable",
      "type": "function"
    },
    {
      "inputs": [],
      "name": "claimFunds",
      "outputs": [],
      "stateMutability": "nonpayable",
      "type": "function"
    },
    {
      "inputs": [
        {
          "internalType": "uint256",
          "name": "_nftId",
          "type": "uint256"
        }
      ],
      "name": "makeAuction",
      "outputs": [],
      "stateMutability": "payable",
      "type": "function",
      "payable": true
    },
    {
      "inputs": [
        {
          "internalType": "uint256",
          "name": "_auctionId",
          "type": "uint256"
        }
      ],
      "name": "getAuction",
      "outputs": [
        {
          "internalType": "address",
          "name": "",
          "type": "address"
        },
        {
          "internalType": "uint256",
          "name": "",
          "type": "uint256"
        },
        {
          "internalType": "uint256",
          "name": "",
          "type": "uint256"
        },
        {
          "internalType": "uint256",
          "name": "",
          "type": "uint256"
        },
        {
          "internalType": "bool",
          "name": "",
          "type": "bool"
        },
        {
          "internalType": "address",
          "name": "",
          "type": "address"
        },
        {
          "internalType": "uint256",
          "name": "",
          "type": "uint256"
        }
      ],
      "stateMutability": "nonpayable",
      "type": "function"
    },
    {
      "inputs": [
        {
          "internalType": "uint256",
          "name": "_auctionId",
          "type": "uint256"
        }
      ],
      "name": "fillBid",
      "outputs": [],
      "stateMutability": "payable",
      "type": "function",
      "payable": true
    },
    {
      "inputs": [
        {
          "internalType": "uint256",
          "name": "_auctionId",
          "type": "uint256"
        }
      ],
      "name": "end",
      "outputs": [
        {
          "internalType": "string",
          "name": "",
          "type": "string"
        }
      ],
      "stateMutability": "payable",
      "type": "function",
      "payable": true
    },
    {
      "inputs": [
        {
          "internalType": "uint256",
          "name": "amount",
          "type": "uint256"
        },
        {
          "internalType": "uint256",
          "name": "_auctionId",
          "type": "uint256"
        }
      ],
      "name": "autoBookBack",
      "outputs": [],
      "stateMutability": "nonpayable",
      "type": "function"
    },
    {
      "inputs": [
        {
          "internalType": "uint256",
          "name": "_auctionId",
          "type": "uint256"
        }
      ],
      "name": "withdraw",
      "outputs": [],
      "stateMutability": "nonpayable",
      "type": "function"
    }
  ],
  "bytecode": "0x60806040523480156200001157600080fd5b5060405162002a3038038062002a308339818101604052810190620000379190620000e9565b80600360006101000a81548173ffffffffffffffffffffffffffffffffffffffff021916908373ffffffffffffffffffffffffffffffffffffffff160217905550506200011b565b600080fd5b600073ffffffffffffffffffffffffffffffffffffffff82169050919050565b6000620000b18262000084565b9050919050565b620000c381620000a4565b8114620000cf57600080fd5b50565b600081519050620000e381620000b8565b92915050565b6000602082840312156200010257620001016200007f565b5b60006200011284828501620000d2565b91505092915050565b612905806200012b6000396000f3fe6080604052600436106100ec5760003560e01c8063571a26a01161008a5780638a72ea6a116100595780638a72ea6a146102f1578063ac30777314610333578063ddf1a5481461034a578063ef706adf14610373576100ed565b8063571a26a01461020f57806378bd7935146102555780638387c6e11461029857806385dba861146102d5576100ed565b80632ad71573116100c65780632ad71573146101835780632e1a7d4d146101ae57806342c820d6146101d7578063484a1f32146101f3576100ed565b806305b7cdd3146100ff5780630ad24528146101285780631115c24d14610158576100ed565b5b3480156100f957600080fd5b50600080fd5b34801561010b57600080fd5b5061012660048036038101906101219190611aab565b61039c565b005b610142600480360381019061013d9190611aeb565b610593565b60405161014f9190611bb1565b60405180910390f35b34801561016457600080fd5b5061016d6109a7565b60405161017a9190611be2565b60405180910390f35b34801561018f57600080fd5b506101986109ad565b6040516101a59190611be2565b60405180910390f35b3480156101ba57600080fd5b506101d560048036038101906101d09190611aeb565b6109b3565b005b6101f160048036038101906101ec9190611aeb565b610ab0565b005b61020d60048036038101906102089190611aeb565b610cb1565b005b34801561021b57600080fd5b5061023660048036038101906102319190611aeb565b610ec4565b60405161024c9a99989796959493929190611c7c565b60405180910390f35b34801561026157600080fd5b5061027c60048036038101906102779190611aeb565b610f79565b60405161028f9796959493929190611d18565b60405180910390f35b3480156102a457600080fd5b506102bf60048036038101906102ba9190611db3565b611076565b6040516102cc9190611be2565b60405180910390f35b6102ef60048036038101906102ea9190611aeb565b61108e565b005b3480156102fd57600080fd5b5061031860048036038101906103139190611aeb565b6113d6565b60405161032a96959493929190611de0565b60405180910390f35b34801561033f57600080fd5b5061034861144c565b005b34801561035657600080fd5b50610371600480360381019061036c9190611aab565b611613565b005b34801561037f57600080fd5b5061039a60048036038101906103959190611aeb565b61167c565b005b600360009054906101000a900473ffffffffffffffffffffffffffffffffffffffff1673ffffffffffffffffffffffffffffffffffffffff166323b872dd3330856040518463ffffffff1660e01b81526004016103fb93929190611e41565b600060405180830381600087803b15801561041557600080fd5b505af1158015610429573d6000803e3d6000fd5b5050505060008081548092919061043f90611ea7565b91905055506040518060c0016040528060005481526020018381526020013373ffffffffffffffffffffffffffffffffffffffff168152602001828152602001600015158152602001600015158152506001600080548152602001908152602001600020600082015181600001556020820151816001015560408201518160020160006101000a81548173ffffffffffffffffffffffffffffffffffffffff021916908373ffffffffffffffffffffffffffffffffffffffff1602179055506060820151816003015560808201518160040160006101000a81548160ff02191690831515021790555060a08201518160040160016101000a81548160ff0219169083151502179055509050507f93e711896d4ef527d199d7e101922e20f918cbb248a0fb0977c52fda24aa1f1d60005483338460008060405161058796959493929190611de0565b60405180910390a15050565b60606000600560008481526020019081526020016000209050828160000154146105f2576040517f08c379a00000000000000000000000000000000000000000000000000000000081526004016105e990611f3b565b60405180910390fd5b8060060154421015610639576040517f08c379a000000000000000000000000000000000000000000000000000000000815260040161063090611fa7565b60405180910390fd5b600115158160070160009054906101000a900460ff16151514610691576040517f08c379a000000000000000000000000000000000000000000000000000000000815260040161068890612039565b60405180910390fd5b60008160070160006101000a81548160ff021916908315150217905550600073ffffffffffffffffffffffffffffffffffffffff168160070160019054906101000a900473ffffffffffffffffffffffffffffffffffffffff1673ffffffffffffffffffffffffffffffffffffffff161461084257600360009054906101000a900473ffffffffffffffffffffffffffffffffffffffff1673ffffffffffffffffffffffffffffffffffffffff166323b872dd308360070160019054906101000a900473ffffffffffffffffffffffffffffffffffffffff1684600101546040518463ffffffff1660e01b815260040161078d93929190611e41565b600060405180830381600087803b1580156107a757600080fd5b505af11580156107bb573d6000803e3d6000fd5b505050508060080154600260008360020160009054906101000a900473ffffffffffffffffffffffffffffffffffffffff1673ffffffffffffffffffffffffffffffffffffffff1673ffffffffffffffffffffffffffffffffffffffff16815260200190815260200160002060008282546108369190612059565b925050819055506108fc565b600360009054906101000a900473ffffffffffffffffffffffffffffffffffffffff1673ffffffffffffffffffffffffffffffffffffffff166323b872dd308360020160009054906101000a900473ffffffffffffffffffffffffffffffffffffffff1684600101546040518463ffffffff1660e01b81526004016108c993929190611e41565b600060405180830381600087803b1580156108e357600080fd5b505af11580156108f7573d6000803e3d6000fd5b505050505b7fe40da2ed231723b222a7ba7da994c3afc3f83a51da76262083e38841e2da09828160000154826001015483600801548460070160019054906101000a900473ffffffffffffffffffffffffffffffffffffffff1660405161096194939291906120af565b60405180910390a16040518060400160405280601b81526020017f41756374696f6e20656e646564207375636365737366756c6c79210000000000815250915050919050565b60005481565b60045481565b60006005600083815260200190815260200160002090508060070160019054906101000a900473ffffffffffffffffffffffffffffffffffffffff1673ffffffffffffffffffffffffffffffffffffffff163373ffffffffffffffffffffffffffffffffffffffff1603610a2657600080fd5b6000610a446005600085815260200190815260200160002033611910565b9050610a646005600085815260200190815260200160002033600061195c565b3373ffffffffffffffffffffffffffffffffffffffff166108fc829081150290604051600060405180830381858888f19350505050158015610aaa573d6000803e3d6000fd5b50505050565b600060056000838152602001908152602001600020905081816000015414610b0d576040517f08c379a0000000000000000000000000000000000000000000000000000000008152600401610b0490612140565b60405180910390fd5b80600601544210610b53576040517f08c379a0000000000000000000000000000000000000000000000000000000008152600401610b4a906121ac565b60405180910390fd5b3373ffffffffffffffffffffffffffffffffffffffff168160020160009054906101000a900473ffffffffffffffffffffffffffffffffffffffff1673ffffffffffffffffffffffffffffffffffffffff1603610be5576040517f08c379a0000000000000000000000000000000000000000000000000000000008152600401610bdc9061223e565b60405180910390fd5b600034905081600801548111610c30576040517f08c379a0000000000000000000000000000000000000000000000000000000008152600401610c27906122aa565b60405180910390fd5b6000610c3c8333611910565b9050610c4a8333600061195c565b610c548185611613565b610c5f83338461195c565b338360070160016101000a81548173ffffffffffffffffffffffffffffffffffffffff021916908373ffffffffffffffffffffffffffffffffffffffff16021790555081836008018190555050505050565b600360009054906101000a900473ffffffffffffffffffffffffffffffffffffffff1673ffffffffffffffffffffffffffffffffffffffff166323b872dd3330846040518463ffffffff1660e01b8152600401610d1093929190611e41565b600060405180830381600087803b158015610d2a57600080fd5b505af1158015610d3e573d6000803e3d6000fd5b5050505060046000815480929190610d5590611ea7565b9190505550600060056000600454815260200190815260200160002090506004548160000181905550818160010181905550338160020160006101000a81548173ffffffffffffffffffffffffffffffffffffffff021916908373ffffffffffffffffffffffffffffffffffffffff1602179055506001816003018190555060018160070160006101000a81548160ff02191690831515021790555061012c8160040160006101000a81548167ffffffffffffffff021916908367ffffffffffffffff16021790555042816005018190555061012c42610e359190612059565b81600601819055507fa9c8dfcda5664a5a124c713e386da27de87432d5b668e79458501eb296389ba7600454836005600060045481526020019081526020016000206003015460056000600454815260200190815260200160002060040160009054906101000a900467ffffffffffffffff16604051610eb89493929190612305565b60405180910390a15050565b60056020528060005260406000206000915090508060000154908060010154908060020160009054906101000a900473ffffffffffffffffffffffffffffffffffffffff16908060030154908060040160009054906101000a900467ffffffffffffffff16908060050154908060060154908060070160009054906101000a900460ff16908060070160019054906101000a900473ffffffffffffffffffffffffffffffffffffffff1690806008015490508a565b6000806000806000806000610f8d886119a7565b6000600560008a8152602001908152602001600020905060008160020160009054906101000a900473ffffffffffffffffffffffffffffffffffffffff16905060008260030154905060008360040160009054906101000a900467ffffffffffffffff1667ffffffffffffffff16905060008460060154905060008560070160009054906101000a900460ff16905060008660070160019054906101000a900473ffffffffffffffffffffffffffffffffffffffff169050600087600801549050868686868686869e509e509e509e509e509e509e505050505050505050919395979092949650565b60026020528060005260406000206000915090505481565b6000600160008381526020019081526020016000209050818160000154146110eb576040517f08c379a00000000000000000000000000000000000000000000000000000000081526004016110e290612396565b60405180910390fd5b3373ffffffffffffffffffffffffffffffffffffffff168160020160009054906101000a900473ffffffffffffffffffffffffffffffffffffffff1673ffffffffffffffffffffffffffffffffffffffff160361117d576040517f08c379a000000000000000000000000000000000000000000000000000000000815260040161117490612428565b60405180910390fd5b8060040160009054906101000a900460ff16156111cf576040517f08c379a00000000000000000000000000000000000000000000000000000000081526004016111c6906124ba565b60405180910390fd5b8060040160019054906101000a900460ff1615611221576040517f08c379a00000000000000000000000000000000000000000000000000000000081526004016112189061254c565b60405180910390fd5b80600301543414611267576040517f08c379a000000000000000000000000000000000000000000000000000000000815260040161125e906125de565b60405180910390fd5b600360009054906101000a900473ffffffffffffffffffffffffffffffffffffffff1673ffffffffffffffffffffffffffffffffffffffff166323b872dd303384600101546040518463ffffffff1660e01b81526004016112ca93929190611e41565b600060405180830381600087803b1580156112e457600080fd5b505af11580156112f8573d6000803e3d6000fd5b5050505060018160040160006101000a81548160ff02191690831515021790555034600260008360020160009054906101000a900473ffffffffffffffffffffffffffffffffffffffff1673ffffffffffffffffffffffffffffffffffffffff1673ffffffffffffffffffffffffffffffffffffffff168152602001908152602001600020600082825461138c9190612059565b925050819055507fd9157c065213ada613694e84b1e27fe2efd62d85c6b82bd6c842a4999491e72a828260010154336040516113ca939291906125fe565b60405180910390a15050565b60016020528060005260406000206000915090508060000154908060010154908060020160009054906101000a900473ffffffffffffffffffffffffffffffffffffffff16908060030154908060040160009054906101000a900460ff16908060040160019054906101000a900460ff16905086565b6000600260003373ffffffffffffffffffffffffffffffffffffffff1673ffffffffffffffffffffffffffffffffffffffff16815260200190815260200160002054116114ce576040517f08c379a00000000000000000000000000000000000000000000000000000000081526004016114c5906126a7565b60405180910390fd5b3373ffffffffffffffffffffffffffffffffffffffff166108fc600260003373ffffffffffffffffffffffffffffffffffffffff1673ffffffffffffffffffffffffffffffffffffffff168152602001908152602001600020549081150290604051600060405180830381858888f19350505050158015611553573d6000803e3d6000fd5b507f4f0554190111f93f8c2ccef2cc41473f187d7f29ff5a5c308ca41f9dfe4e989a33600260003373ffffffffffffffffffffffffffffffffffffffff1673ffffffffffffffffffffffffffffffffffffffff168152602001908152602001600020546040516115c49291906126c7565b60405180910390a16000600260003373ffffffffffffffffffffffffffffffffffffffff1673ffffffffffffffffffffffffffffffffffffffff16815260200190815260200160002081905550565b6116316005600083815260200190815260200160002033600061195c565b3373ffffffffffffffffffffffffffffffffffffffff166108fc839081150290604051600060405180830381858888f19350505050158015611677573d6000803e3d6000fd5b505050565b6000600160008381526020019081526020016000209050818160000154146116d9576040517f08c379a00000000000000000000000000000000000000000000000000000000081526004016116d090612396565b60405180910390fd5b3373ffffffffffffffffffffffffffffffffffffffff168160020160009054906101000a900473ffffffffffffffffffffffffffffffffffffffff1673ffffffffffffffffffffffffffffffffffffffff161461176b576040517f08c379a000000000000000000000000000000000000000000000000000000000815260040161176290612762565b60405180910390fd5b600015158160040160009054906101000a900460ff161515146117c3576040517f08c379a00000000000000000000000000000000000000000000000000000000081526004016117ba906127f4565b60405180910390fd5b600015158160040160019054906101000a900460ff1615151461181b576040517f08c379a000000000000000000000000000000000000000000000000000000000815260040161181290612886565b60405180910390fd5b600360009054906101000a900473ffffffffffffffffffffffffffffffffffffffff1673ffffffffffffffffffffffffffffffffffffffff166323b872dd303384600101546040518463ffffffff1660e01b815260040161187e93929190611e41565b600060405180830381600087803b15801561189857600080fd5b505af11580156118ac573d6000803e3d6000fd5b5050505060018160040160016101000a81548160ff0219169083151502179055507f5b166b4d0498ff8c4719999cb6154c5d197e6f020f9fbfcf9d347f84576cfab782826001015433604051611904939291906125fe565b60405180910390a15050565b60008260090160008373ffffffffffffffffffffffffffffffffffffffff1673ffffffffffffffffffffffffffffffffffffffff16815260200190815260200160002054905092915050565b808360090160008473ffffffffffffffffffffffffffffffffffffffff1673ffffffffffffffffffffffffffffffffffffffff16815260200190815260200160002081905550505050565b600060056000838152602001908152602001600020905060006119ca8233611910565b9050600081118015611a2c57503373ffffffffffffffffffffffffffffffffffffffff168260070160019054906101000a900473ffffffffffffffffffffffffffffffffffffffff1673ffffffffffffffffffffffffffffffffffffffff1614155b15611a6b577fee908ba8762ef5f2fa9de38ef043b41e9f638b64fa9b8d3e2218cb28df4e6b748333604051611a629291906128a6565b60405180910390a15b505050565b600080fd5b6000819050919050565b611a8881611a75565b8114611a9357600080fd5b50565b600081359050611aa581611a7f565b92915050565b60008060408385031215611ac257611ac1611a70565b5b6000611ad085828601611a96565b9250506020611ae185828601611a96565b9150509250929050565b600060208284031215611b0157611b00611a70565b5b6000611b0f84828501611a96565b91505092915050565b600081519050919050565b600082825260208201905092915050565b60005b83811015611b52578082015181840152602081019050611b37565b83811115611b61576000848401525b50505050565b6000601f19601f8301169050919050565b6000611b8382611b18565b611b8d8185611b23565b9350611b9d818560208601611b34565b611ba681611b67565b840191505092915050565b60006020820190508181036000830152611bcb8184611b78565b905092915050565b611bdc81611a75565b82525050565b6000602082019050611bf76000830184611bd3565b92915050565b600073ffffffffffffffffffffffffffffffffffffffff82169050919050565b6000611c2882611bfd565b9050919050565b611c3881611c1d565b82525050565b600067ffffffffffffffff82169050919050565b611c5b81611c3e565b82525050565b60008115159050919050565b611c7681611c61565b82525050565b600061014082019050611c92600083018d611bd3565b611c9f602083018c611bd3565b611cac604083018b611c2f565b611cb9606083018a611bd3565b611cc66080830189611c52565b611cd360a0830188611bd3565b611ce060c0830187611bd3565b611ced60e0830186611c6d565b611cfb610100830185611c2f565b611d09610120830184611bd3565b9b9a5050505050505050505050565b600060e082019050611d2d600083018a611c2f565b611d3a6020830189611bd3565b611d476040830188611bd3565b611d546060830187611bd3565b611d616080830186611c6d565b611d6e60a0830185611c2f565b611d7b60c0830184611bd3565b98975050505050505050565b611d9081611c1d565b8114611d9b57600080fd5b50565b600081359050611dad81611d87565b92915050565b600060208284031215611dc957611dc8611a70565b5b6000611dd784828501611d9e565b91505092915050565b600060c082019050611df56000830189611bd3565b611e026020830188611bd3565b611e0f6040830187611c2f565b611e1c6060830186611bd3565b611e296080830185611c6d565b611e3660a0830184611c6d565b979650505050505050565b6000606082019050611e566000830186611c2f565b611e636020830185611c2f565b611e706040830184611bd3565b949350505050565b7f4e487b7100000000000000000000000000000000000000000000000000000000600052601160045260246000fd5b6000611eb282611a75565b91507fffffffffffffffffffffffffffffffffffffffffffffffffffffffffffffffff8203611ee457611ee3611e78565b5b600182019050919050565b7f5468652061756374696f6e206d75737420657869737400000000000000000000600082015250565b6000611f25601683611b23565b9150611f3082611eef565b602082019050919050565b60006020820190508181036000830152611f5481611f18565b9050919050565b7f6e6f7420656e6465640000000000000000000000000000000000000000000000600082015250565b6000611f91600983611b23565b9150611f9c82611f5b565b602082019050919050565b60006020820190508181036000830152611fc081611f84565b9050919050565b7f54686520697341637469766520697320616c72656164792073657420746f206660008201527f616c736521000000000000000000000000000000000000000000000000000000602082015250565b6000612023602583611b23565b915061202e82611fc7565b604082019050919050565b6000602082019050818103600083015261205281612016565b9050919050565b600061206482611a75565b915061206f83611a75565b9250827fffffffffffffffffffffffffffffffffffffffffffffffffffffffffffffffff038211156120a4576120a3611e78565b5b828201905092915050565b60006080820190506120c46000830187611bd3565b6120d16020830186611bd3565b6120de6040830185611bd3565b6120eb6060830184611c2f565b95945050505050565b7f5468652061756374696f6e20646f6573206e6f74206578697374210000000000600082015250565b600061212a601b83611b23565b9150612135826120f4565b602082019050919050565b600060208201905081810360008301526121598161211d565b9050919050565b7f5468652041756374696f6e2068617320616c726561647920656e646564210000600082015250565b6000612196601e83611b23565b91506121a182612160565b602082019050919050565b600060208201905081810360008301526121c581612189565b9050919050565b7f5468652073656c6c65722063616e206e6f7420706c616365206120626964206f60008201527f6e20686973206f776e204e465421000000000000000000000000000000000000602082015250565b6000612228602e83611b23565b9150612233826121cc565b604082019050919050565b600060208201905081810360008301526122578161221b565b9050919050565b7f76616c7565203c20686967686573740000000000000000000000000000000000600082015250565b6000612294600f83611b23565b915061229f8261225e565b602082019050919050565b600060208201905081810360008301526122c381612287565b9050919050565b6000819050919050565b60006122ef6122ea6122e584611c3e565b6122ca565b611a75565b9050919050565b6122ff816122d4565b82525050565b600060808201905061231a6000830187611bd3565b6123276020830186611bd3565b6123346040830185611bd3565b61234160608301846122f6565b95945050505050565b7f546865206f66666572206d757374206578697374000000000000000000000000600082015250565b6000612380601483611b23565b915061238b8261234a565b602082019050919050565b600060208201905081810360008301526123af81612373565b9050919050565b7f546865206f776e6572206f6620746865206f666665722063616e6e6f7420666960008201527f6c6c206974000000000000000000000000000000000000000000000000000000602082015250565b6000612412602583611b23565b915061241d826123b6565b604082019050919050565b6000602082019050818103600083015261244181612405565b9050919050565b7f416e206f666665722063616e6e6f742062652066756c66696c6c65642074776960008201527f6365000000000000000000000000000000000000000000000000000000000000602082015250565b60006124a4602283611b23565b91506124af82612448565b604082019050919050565b600060208201905081810360008301526124d381612497565b9050919050565b7f412063616e63656c6c6564206f666665722063616e6e6f742062652066756c6660008201527f696c6c6564000000000000000000000000000000000000000000000000000000602082015250565b6000612536602583611b23565b9150612541826124da565b604082019050919050565b6000602082019050818103600083015261256581612529565b9050919050565b7f5468652045544820616d6f756e742073686f756c64206d61746368207769746860008201527f20746865204e4654205072696365000000000000000000000000000000000000602082015250565b60006125c8602e83611b23565b91506125d38261256c565b604082019050919050565b600060208201905081810360008301526125f7816125bb565b9050919050565b60006060820190506126136000830186611bd3565b6126206020830185611bd3565b61262d6040830184611c2f565b949350505050565b7f54686973207573657220686173206e6f2066756e647320746f20626520636c6160008201527f696d656400000000000000000000000000000000000000000000000000000000602082015250565b6000612691602483611b23565b915061269c82612635565b604082019050919050565b600060208201905081810360008301526126c081612684565b9050919050565b60006040820190506126dc6000830185611c2f565b6126e96020830184611bd3565b9392505050565b7f546865206f666665722063616e206f6e6c792062652063616e63656c6564206260008201527f7920746865206f776e6572000000000000000000000000000000000000000000602082015250565b600061274c602b83611b23565b9150612757826126f0565b604082019050919050565b6000602082019050818103600083015261277b8161273f565b9050919050565b7f412066756c66696c6c6564206f666665722063616e6e6f742062652063616e6360008201527f656c6c6564000000000000000000000000000000000000000000000000000000602082015250565b60006127de602583611b23565b91506127e982612782565b604082019050919050565b6000602082019050818103600083015261280d816127d1565b9050919050565b7f416e206f666665722063616e6e6f742062652063616e63656c6c65642074776960008201527f6365000000000000000000000000000000000000000000000000000000000000602082015250565b6000612870602283611b23565b915061287b82612814565b604082019050919050565b6000602082019050818103600083015261289f81612863565b9050919050565b60006040820190506128bb6000830185611bd3565b6128c86020830184611c2f565b939250505056fea2646970667358221220997444e74cfe81871720513b76afd06f38d6891ed048683721e1d522a186382f64736f6c634300080d0033",
  "immutableReferences": {},
  "source": "// SPDX-License-Identifier: MIT\npragma solidity ^0.8.0;\n\nimport \"./NFTCollection.sol\";\n\n\ncontract NFTMarketplace {\n    uint256 public offerCount;\n    mapping(uint256 => _Offer) public offers;\n    mapping(address => uint256) public userFunds;\n    NFTCollection nftCollection;\n\n    // Offers allow other users (not the owner) to buy the NFT at a fixed price.\n    struct _Offer {\n        uint256 offerId;\n        uint256 id;\n        address user;\n        uint256 price;\n        bool fulfilled;\n        bool cancelled;\n    }\n\n    event Offer(\n        uint256 offerId,\n        uint256 id,\n        address user,\n        uint256 price,\n        bool fulfilled,\n        bool cancelled\n    );\n\n    event OfferFilled(uint256 offerId, uint256 id, address newOwner);\n    event OfferCancelled(uint256 offerId, uint256 id, address owner);\n    event ClaimFunds(address user, uint256 amount);\n\n    constructor(address _nftCollection) {\n        nftCollection = NFTCollection(_nftCollection);\n    }\n\n    /// @notice Sets the price at which the NFT can be bought from other users.\n    /// @param _id The token id of the NFT.\n    /// @param _price The price at which the NFT can be bought.\n    function makeOffer(uint256 _id, uint256 _price) public {\n        nftCollection.transferFrom(msg.sender, address(this), _id);\n        offerCount++;\n        offers[offerCount] = _Offer(\n            offerCount,\n            _id,\n            msg.sender,\n            _price,\n            false,\n            false\n        );\n        emit Offer(offerCount, _id, msg.sender, _price, false, false);\n    }\n\n    /// @notice The sender buys a NFT from the offers list.\n    /// @param _offerId The id of the offer which the user wants to buy.\n    function fillOffer(uint256 _offerId) public payable {\n        _Offer storage _offer = offers[_offerId];\n        require(_offer.offerId == _offerId, \"The offer must exist\");\n        require(\n            _offer.user != msg.sender,\n            \"The owner of the offer cannot fill it\"\n        );\n        require(!_offer.fulfilled, \"An offer cannot be fulfilled twice\");\n        require(!_offer.cancelled, \"A cancelled offer cannot be fulfilled\");\n        require(\n            msg.value == _offer.price,\n            \"The ETH amount should match with the NFT Price\"\n        );\n        nftCollection.transferFrom(address(this), msg.sender, _offer.id);\n        _offer.fulfilled = true;\n        userFunds[_offer.user] += msg.value;\n        emit OfferFilled(_offerId, _offer.id, msg.sender);\n    }\n\n    /// @notice Cancel an offer from the offers list. Only available to the owner of the offer.\n    /// @param _offerId The id of the offer which the user wants to cancel.\n    function cancelOffer(uint256 _offerId) public {\n        _Offer storage _offer = offers[_offerId];\n        require(_offer.offerId == _offerId, \"The offer must exist\");\n        require(\n            _offer.user == msg.sender,\n            \"The offer can only be canceled by the owner\"\n        );\n        require(\n            _offer.fulfilled == false,\n            \"A fulfilled offer cannot be cancelled\"\n        );\n        require(\n            _offer.cancelled == false,\n            \"An offer cannot be cancelled twice\"\n        );\n        nftCollection.transferFrom(address(this), msg.sender, _offer.id);\n        _offer.cancelled = true;\n        emit OfferCancelled(_offerId, _offer.id, msg.sender);\n    }\n\n    /// @notice The user can withdraw their funds made by selling NFT.\n    /// @dev Not implemented in UI yet.\n    function claimFunds() public {\n        require(\n            userFunds[msg.sender] > 0,\n            \"This user has no funds to be claimed\"\n        );\n        payable(msg.sender).transfer(userFunds[msg.sender]);\n        emit ClaimFunds(msg.sender, userFunds[msg.sender]);\n        userFunds[msg.sender] = 0;\n    }\n\n\n    //<-------------------------Implementing Auction mechnanism---------------------------------------->\n\n    uint256 public auctionCount;\n    mapping(uint256 => _Auction) public auctions;\n\n    struct _Auction {\n        // Id of auction\n        uint256 auctionId;\n        //Id of NFT\n        uint256 nftId;\n        // Current owner of NFT\n        address seller;\n        // Price at beginning of auction\n        uint256 startingPrice;\n        // Duration (in seconds) of auction\n        uint64 duration;\n        // Time when auction started\n        // NOTE: 0 if this auction has been concluded\n        uint256 startedAt;\n        //end time of auction\n        uint256 endedAt;\n        //current state of auction\n        bool isActive;\n        //current highest bidder\n        address highestBidder;\n        //current highest bid\n        uint256 highestBid;\n        mapping(address => uint256) bids;\n    }\n\n    event AuctionCreated(\n        uint256 auctionId,\n        uint256 tokenId,\n        uint256 startingPrice,\n        uint256 duration\n    );\n    event AuctionSuccessful(\n        uint256 auctionId,\n        uint256 tokenId,\n        uint256 totalPrice,\n        address winner\n    );\n    event AuctionCancelled(uint256 tokenId); //not implemented yet?\n    event GotOverbidden(uint256 auctionId, address user);\n/** getBids returns cumulated bids of the bidder */\n    function getBids(_Auction storage auction, address bidder)\n        internal\n        returns (uint256)\n    {\n        return auction.bids[bidder];\n    }\n/** setBids updates bids for bidder  */\n    function setBids(\n        _Auction storage auction,\n        address bidder,\n        uint256 bid\n    ) internal {\n        auction.bids[bidder] = bid;\n    }\n\n    function checkIfHighestBidder(uint256 _auctionId) internal {\n        _Auction storage _auction = auctions[_auctionId];\n        uint256 currentCummulatedBids = getBids(_auction, msg.sender);\n        if (currentCummulatedBids > 0 && _auction.highestBidder != msg.sender)\n            emit GotOverbidden(_auctionId, msg.sender);\n    }\n/** make auction creates the auction struct and starts the timer */\n    function makeAuction(uint256 _nftId) public payable {\n        nftCollection.transferFrom(msg.sender, address(this), _nftId);\n        auctionCount++;\n        _Auction storage _auction = auctions[auctionCount];\n        _auction.auctionId = auctionCount;\n        _auction.nftId = _nftId;    \n        _auction.seller = msg.sender;\n        _auction.startingPrice = 1; //currently even necessary?\n        //duration fixed 5 minutes = 300 seconds\n        _auction.isActive = true;\n        _auction.duration = 300;\n        _auction.startedAt = block.timestamp;\n        _auction.endedAt = block.timestamp + 300;\n        //true,\n\n        emit AuctionCreated(\n            auctionCount,\n            _nftId,\n            auctions[auctionCount].startingPrice,\n            auctions[auctionCount].duration\n        );\n    }\n\n/** getAuction is used to get details about the auction and check if the current user has been overbidden (if true emit Event) */\n    function getAuction(uint256 _auctionId)\n        public\n        returns (\n            address,\n            uint256,\n            uint256,\n            uint256,\n            bool,\n            address,\n            uint256\n        )\n    {\n        checkIfHighestBidder(_auctionId);\n        _Auction storage _auction = auctions[_auctionId];\n        //uint256 auctionId = _auction.auctionId; //not neccessary\n        address auctionSeller = _auction.seller;\n        uint256 auctionStartingPrice = _auction.startingPrice;\n        //duration fixed 5 minutes = 300 seconds\n        uint256 auctionDuration = _auction.duration;\n        uint256 auctionEndetAt = _auction.endedAt;\n        bool auctionIsActive = _auction.isActive;\n        address highestBidder = _auction.highestBidder;\n        uint256 highestBid = _auction.highestBid;\n\n        return (\n            auctionSeller,\n            auctionStartingPrice,\n            auctionDuration,\n            auctionEndetAt,\n            auctionIsActive,\n            highestBidder,\n            highestBid\n        );\n    }\n\n/** fillBid is used to update the auction struct, if someone overbid the current bid */\n    function fillBid(uint256 _auctionId) public payable {\n        _Auction storage _auction = auctions[_auctionId];\n        require(_auction.auctionId == _auctionId, \"The auction does not exist!\");\n        require(block.timestamp < _auction.endedAt, \"The Auction has already ended!\");\n        require(_auction.seller != msg.sender, \"The seller can not place a bid on his own NFT!\");\n\n        uint256 newBid = msg.value;\n        require(newBid > _auction.highestBid, \"value < highest\");\n        uint256 cumulatedBids = getBids(_auction, msg.sender);\n        //set current Bids on 0 to counter re-entry attacks\n        setBids(_auction, msg.sender, 0);\n        //book back older bids in case\n        autoBookBack(cumulatedBids, _auctionId);\n        //set current Bids on new Bid\n        setBids(_auction, msg.sender, newBid);\n        _auction.highestBidder = msg.sender;\n        _auction.highestBid = newBid;\n    }\n\n\n/** end is called after the auction has ended  if someone bid on the NFT, it is transferred to the highest bidder, else transferred back to the seller */\n    function end(uint256 _auctionId) public payable returns (string memory){\n        _Auction storage _auction = auctions[_auctionId];\n        require(_auction.auctionId == _auctionId, \"The auction must exist\");\n        require(block.timestamp >= _auction.endedAt, \"not ended\");\n        require(_auction.isActive == true, \"The isActive is already set to false!\");\n        _auction.isActive = false;\n        if (_auction.highestBidder != address(0)) {\n            nftCollection.transferFrom(\n                address(this),\n                _auction.highestBidder,\n                _auction.nftId\n            );\n\n            //user funds balance of the seller get the amount of the highest bid\n            //the user can claim all of his earned funds by calling \"claimFunds\"-function\n            userFunds[_auction.seller] += _auction.highestBid;\n        } else {\n            nftCollection.transferFrom(\n                address(this),\n                _auction.seller,\n                _auction.nftId\n            );\n            \n        }\n\n        emit AuctionSuccessful(\n            _auction.auctionId,\n            _auction.nftId,\n            _auction.highestBid,\n            _auction.highestBidder\n        );\n        return(\"Auction ended successfully!\");\n    }\n\n/** autoBookBack books back all transfered ether of previous bids in case a new bid is made */\n    function autoBookBack(uint256 amount, uint256 _auctionId) public {\n        //again set Bids on 0 in case of re-entry attack\n        setBids(auctions[_auctionId], msg.sender, 0);\n        payable(msg.sender).transfer(amount);\n    }\n/** withdraw allows overbidden users to withdraw their cumulated bids  */\n    function withdraw(uint256 _auctionId) public {\n        _Auction storage _auction = auctions[_auctionId];\n        require(msg.sender != _auction.highestBidder);\n        uint256 amount = getBids(auctions[_auctionId], msg.sender);\n        setBids(auctions[_auctionId], msg.sender, 0);\n        payable(msg.sender).transfer(amount);\n    }\n\n    // Fallback: reverts if Ether is sent to this smart-contract by mistake\n    fallback() external {\n        revert();\n    }\n}\n",
  "sourcePath": "D:\\Softwareprojekte Uni\\hackathon\\nft-marketplace\\src\\contracts\\NFTMarketplace.sol",
  "compiler": {
    "name": "solc",
    "version": "0.8.13+commit.abaa5c0e.Emscripten.clang"
  },
  "schemaVersion": "3.4.6",
  "updatedAt": "2022-05-02T17:59:17.264Z",
  "networkType": "ethereum",
  "devdoc": {
    "kind": "dev",
    "methods": {
      "cancelOffer(uint256)": {
        "params": {
          "_offerId": "The id of the offer which the user wants to cancel."
        }
      },
      "claimFunds()": {
        "details": "Not implemented in UI yet."
      },
      "fillOffer(uint256)": {
        "params": {
          "_offerId": "The id of the offer which the user wants to buy."
        }
      },
      "makeOffer(uint256,uint256)": {
        "params": {
          "_id": "The token id of the NFT.",
          "_price": "The price at which the NFT can be bought."
        }
      }
    },
    "version": 1
  },
  "userdoc": {
    "kind": "user",
    "methods": {
      "autoBookBack(uint256,uint256)": {
        "notice": "autoBookBack books back all transfered ether of previous bids in case a new bid is made "
      },
      "cancelOffer(uint256)": {
        "notice": "Cancel an offer from the offers list. Only available to the owner of the offer."
      },
      "claimFunds()": {
        "notice": "The user can withdraw their funds made by selling NFT."
      },
      "end(uint256)": {
        "notice": "end is called after the auction has ended  if someone bid on the NFT, it is transferred to the highest bidder, else transferred back to the seller "
      },
      "fillBid(uint256)": {
        "notice": "fillBid is used to update the auction struct, if someone overbid the current bid "
      },
      "fillOffer(uint256)": {
        "notice": "The sender buys a NFT from the offers list."
      },
      "getAuction(uint256)": {
        "notice": "getAuction is used to get details about the auction and check if the current user has been overbidden (if true emit Event) "
      },
      "makeAuction(uint256)": {
        "notice": "make auction creates the auction struct and starts the timer "
      },
      "makeOffer(uint256,uint256)": {
        "notice": "Sets the price at which the NFT can be bought from other users."
      },
      "withdraw(uint256)": {
        "notice": "withdraw allows overbidden users to withdraw their cumulated bids  "
      }
    },
    "version": 1
  }
}