{
  "contractName": "NFTMarketplace",
  "abi": [
    {
      "inputs": [
        {
          "internalType": "address",
          "name": "_nftCollection",
          "type": "address"
        }
      ],
      "stateMutability": "nonpayable",
      "type": "constructor"
    },
    {
      "anonymous": false,
      "inputs": [
        {
          "indexed": false,
          "internalType": "uint256",
          "name": "auctionId",
          "type": "uint256"
        },
        {
          "indexed": false,
          "internalType": "uint256",
          "name": "tokenId",
          "type": "uint256"
        },
        {
          "indexed": false,
          "internalType": "uint256",
          "name": "startingPrice",
          "type": "uint256"
        },
        {
          "indexed": false,
          "internalType": "uint256",
          "name": "duration",
          "type": "uint256"
        }
      ],
      "name": "AuctionCreated",
      "type": "event"
    },
    {
      "anonymous": false,
      "inputs": [
        {
          "indexed": false,
          "internalType": "uint256",
          "name": "auctionId",
          "type": "uint256"
        },
        {
          "indexed": false,
          "internalType": "uint256",
          "name": "tokenId",
          "type": "uint256"
        },
        {
          "indexed": false,
          "internalType": "uint256",
          "name": "winnersHighestBid",
          "type": "uint256"
        },
        {
          "indexed": false,
          "internalType": "address",
          "name": "winner",
          "type": "address"
        }
      ],
      "name": "AuctionSuccessful",
      "type": "event"
    },
    {
      "anonymous": false,
      "inputs": [
        {
          "indexed": false,
          "internalType": "address",
          "name": "user",
          "type": "address"
        },
        {
          "indexed": false,
          "internalType": "uint256",
          "name": "amount",
          "type": "uint256"
        }
      ],
      "name": "ClaimFunds",
      "type": "event"
    },
    {
      "anonymous": false,
      "inputs": [
        {
          "indexed": false,
          "internalType": "uint256",
          "name": "offerId",
          "type": "uint256"
        },
        {
          "indexed": false,
          "internalType": "uint256",
          "name": "id",
          "type": "uint256"
        },
        {
          "indexed": false,
          "internalType": "address",
          "name": "user",
          "type": "address"
        },
        {
          "indexed": false,
          "internalType": "uint256",
          "name": "price",
          "type": "uint256"
        },
        {
          "indexed": false,
          "internalType": "bool",
          "name": "fulfilled",
          "type": "bool"
        },
        {
          "indexed": false,
          "internalType": "bool",
          "name": "cancelled",
          "type": "bool"
        }
      ],
      "name": "Offer",
      "type": "event"
    },
    {
      "anonymous": false,
      "inputs": [
        {
          "indexed": false,
          "internalType": "uint256",
          "name": "offerId",
          "type": "uint256"
        },
        {
          "indexed": false,
          "internalType": "uint256",
          "name": "id",
          "type": "uint256"
        },
        {
          "indexed": false,
          "internalType": "address",
          "name": "owner",
          "type": "address"
        }
      ],
      "name": "OfferCancelled",
      "type": "event"
    },
    {
      "anonymous": false,
      "inputs": [
        {
          "indexed": false,
          "internalType": "uint256",
          "name": "offerId",
          "type": "uint256"
        },
        {
          "indexed": false,
          "internalType": "uint256",
          "name": "id",
          "type": "uint256"
        },
        {
          "indexed": false,
          "internalType": "address",
          "name": "newOwner",
          "type": "address"
        }
      ],
      "name": "OfferFilled",
      "type": "event"
    },
    {
      "stateMutability": "nonpayable",
      "type": "fallback"
    },
    {
      "inputs": [],
      "name": "auctionCount",
      "outputs": [
        {
          "internalType": "uint256",
          "name": "",
          "type": "uint256"
        }
      ],
      "stateMutability": "view",
      "type": "function",
      "constant": true
    },
    {
      "inputs": [
        {
          "internalType": "uint256",
          "name": "",
          "type": "uint256"
        }
      ],
      "name": "auctions",
      "outputs": [
        {
          "internalType": "uint256",
          "name": "auctionId",
          "type": "uint256"
        },
        {
          "internalType": "uint256",
          "name": "nftId",
          "type": "uint256"
        },
        {
          "internalType": "address",
          "name": "seller",
          "type": "address"
        },
        {
          "internalType": "uint256",
          "name": "startingPrice",
          "type": "uint256"
        },
        {
          "internalType": "uint64",
          "name": "duration",
          "type": "uint64"
        },
        {
          "internalType": "uint256",
          "name": "startedAt",
          "type": "uint256"
        },
        {
          "internalType": "uint256",
          "name": "endedAt",
          "type": "uint256"
        },
        {
          "internalType": "bool",
          "name": "isActive",
          "type": "bool"
        },
        {
          "internalType": "address",
          "name": "highestBidder",
          "type": "address"
        },
        {
          "internalType": "uint256",
          "name": "highestBid",
          "type": "uint256"
        }
      ],
      "stateMutability": "view",
      "type": "function",
      "constant": true
    },
    {
      "inputs": [],
      "name": "offerCount",
      "outputs": [
        {
          "internalType": "uint256",
          "name": "",
          "type": "uint256"
        }
      ],
      "stateMutability": "view",
      "type": "function",
      "constant": true
    },
    {
      "inputs": [
        {
          "internalType": "uint256",
          "name": "",
          "type": "uint256"
        }
      ],
      "name": "offers",
      "outputs": [
        {
          "internalType": "uint256",
          "name": "offerId",
          "type": "uint256"
        },
        {
          "internalType": "uint256",
          "name": "id",
          "type": "uint256"
        },
        {
          "internalType": "address",
          "name": "user",
          "type": "address"
        },
        {
          "internalType": "uint256",
          "name": "price",
          "type": "uint256"
        },
        {
          "internalType": "bool",
          "name": "fulfilled",
          "type": "bool"
        },
        {
          "internalType": "bool",
          "name": "cancelled",
          "type": "bool"
        }
      ],
      "stateMutability": "view",
      "type": "function",
      "constant": true
    },
    {
      "inputs": [
        {
          "internalType": "address",
          "name": "",
          "type": "address"
        }
      ],
      "name": "userFunds",
      "outputs": [
        {
          "internalType": "uint256",
          "name": "",
          "type": "uint256"
        }
      ],
      "stateMutability": "view",
      "type": "function",
      "constant": true
    },
    {
      "inputs": [
        {
          "internalType": "uint256",
          "name": "_id",
          "type": "uint256"
        },
        {
          "internalType": "uint256",
          "name": "_price",
          "type": "uint256"
        }
      ],
      "name": "makeOffer",
      "outputs": [],
      "stateMutability": "nonpayable",
      "type": "function"
    },
    {
      "inputs": [
        {
          "internalType": "uint256",
          "name": "_offerId",
          "type": "uint256"
        }
      ],
      "name": "fillOffer",
      "outputs": [],
      "stateMutability": "payable",
      "type": "function",
      "payable": true
    },
    {
      "inputs": [
        {
          "internalType": "uint256",
          "name": "_offerId",
          "type": "uint256"
        }
      ],
      "name": "cancelOffer",
      "outputs": [],
      "stateMutability": "nonpayable",
      "type": "function"
    },
    {
      "inputs": [],
      "name": "claimFunds",
      "outputs": [],
      "stateMutability": "nonpayable",
      "type": "function"
    },
    {
      "inputs": [
        {
          "internalType": "uint256",
          "name": "_nftId",
          "type": "uint256"
        }
      ],
      "name": "makeAuction",
      "outputs": [],
      "stateMutability": "payable",
      "type": "function",
      "payable": true
    },
    {
      "inputs": [
        {
          "internalType": "uint256",
          "name": "_auctionId",
          "type": "uint256"
        }
      ],
      "name": "fillBid",
      "outputs": [],
      "stateMutability": "payable",
      "type": "function",
      "payable": true
    },
    {
      "inputs": [
        {
          "internalType": "uint256",
          "name": "_auctionId",
          "type": "uint256"
        }
      ],
      "name": "end",
      "outputs": [
        {
          "internalType": "string",
          "name": "",
          "type": "string"
        }
      ],
      "stateMutability": "payable",
      "type": "function",
      "payable": true
    },
    {
      "inputs": [
        {
          "internalType": "uint256",
          "name": "amount",
          "type": "uint256"
        },
        {
          "internalType": "uint256",
          "name": "_auctionId",
          "type": "uint256"
        }
      ],
      "name": "autoBookBack",
      "outputs": [],
      "stateMutability": "nonpayable",
      "type": "function"
    }
  ],
  "bytecode": "0x60806040523480156200001157600080fd5b50604051620026a0380380620026a08339818101604052810190620000379190620000e9565b80600360006101000a81548173ffffffffffffffffffffffffffffffffffffffff021916908373ffffffffffffffffffffffffffffffffffffffff160217905550506200011b565b600080fd5b600073ffffffffffffffffffffffffffffffffffffffff82169050919050565b6000620000b18262000084565b9050919050565b620000c381620000a4565b8114620000cf57600080fd5b50565b600081519050620000e381620000b8565b92915050565b6000602082840312156200010257620001016200007f565b5b60006200011284828501620000d2565b91505092915050565b612575806200012b6000396000f3fe6080604052600436106100c65760003560e01c8063571a26a01161007f5780638a72ea6a116100595780638a72ea6a1461025f578063ac307773146102a1578063ddf1a548146102b8578063ef706adf146102e1576100c7565b8063571a26a0146101c05780638387c6e11461020657806385dba86114610243576100c7565b806305b7cdd3146100d95780630ad24528146101025780631115c24d146101325780632ad715731461015d57806342c820d614610188578063484a1f32146101a4576100c7565b5b3480156100d357600080fd5b50600080fd5b3480156100e557600080fd5b5061010060048036038101906100fb91906117b3565b61030a565b005b61011c600480360381019061011791906117f3565b610501565b60405161012991906118b9565b60405180910390f35b34801561013e57600080fd5b50610147610915565b60405161015491906118ea565b60405180910390f35b34801561016957600080fd5b5061017261091b565b60405161017f91906118ea565b60405180910390f35b6101a2600480360381019061019d91906117f3565b610921565b005b6101be60048036038101906101b991906117f3565b610b6a565b005b3480156101cc57600080fd5b506101e760048036038101906101e291906117f3565b610d7d565b6040516101fd9a99989796959493929190611984565b60405180910390f35b34801561021257600080fd5b5061022d60048036038101906102289190611a4c565b610e32565b60405161023a91906118ea565b60405180910390f35b61025d600480360381019061025891906117f3565b610e4a565b005b34801561026b57600080fd5b50610286600480360381019061028191906117f3565b611192565b60405161029896959493929190611a79565b60405180910390f35b3480156102ad57600080fd5b506102b6611208565b005b3480156102c457600080fd5b506102df60048036038101906102da91906117b3565b611396565b005b3480156102ed57600080fd5b50610308600480360381019061030391906117f3565b61144d565b005b600360009054906101000a900473ffffffffffffffffffffffffffffffffffffffff1673ffffffffffffffffffffffffffffffffffffffff166323b872dd3330856040518463ffffffff1660e01b815260040161036993929190611ada565b600060405180830381600087803b15801561038357600080fd5b505af1158015610397573d6000803e3d6000fd5b505050506000808154809291906103ad90611b40565b91905055506040518060c0016040528060005481526020018381526020013373ffffffffffffffffffffffffffffffffffffffff168152602001828152602001600015158152602001600015158152506001600080548152602001908152602001600020600082015181600001556020820151816001015560408201518160020160006101000a81548173ffffffffffffffffffffffffffffffffffffffff021916908373ffffffffffffffffffffffffffffffffffffffff1602179055506060820151816003015560808201518160040160006101000a81548160ff02191690831515021790555060a08201518160040160016101000a81548160ff0219169083151502179055509050507f93e711896d4ef527d199d7e101922e20f918cbb248a0fb0977c52fda24aa1f1d6000548333846000806040516104f596959493929190611a79565b60405180910390a15050565b6060600060056000848152602001908152602001600020905082816000015414610560576040517f08c379a000000000000000000000000000000000000000000000000000000000815260040161055790611bd4565b60405180910390fd5b80600601544210156105a7576040517f08c379a000000000000000000000000000000000000000000000000000000000815260040161059e90611c40565b60405180910390fd5b600115158160070160009054906101000a900460ff161515146105ff576040517f08c379a00000000000000000000000000000000000000000000000000000000081526004016105f690611cd2565b60405180910390fd5b60008160070160006101000a81548160ff021916908315150217905550600073ffffffffffffffffffffffffffffffffffffffff168160070160019054906101000a900473ffffffffffffffffffffffffffffffffffffffff1673ffffffffffffffffffffffffffffffffffffffff16146107b057600360009054906101000a900473ffffffffffffffffffffffffffffffffffffffff1673ffffffffffffffffffffffffffffffffffffffff166323b872dd308360070160019054906101000a900473ffffffffffffffffffffffffffffffffffffffff1684600101546040518463ffffffff1660e01b81526004016106fb93929190611ada565b600060405180830381600087803b15801561071557600080fd5b505af1158015610729573d6000803e3d6000fd5b505050508060080154600260008360020160009054906101000a900473ffffffffffffffffffffffffffffffffffffffff1673ffffffffffffffffffffffffffffffffffffffff1673ffffffffffffffffffffffffffffffffffffffff16815260200190815260200160002060008282546107a49190611cf2565b9250508190555061086a565b600360009054906101000a900473ffffffffffffffffffffffffffffffffffffffff1673ffffffffffffffffffffffffffffffffffffffff166323b872dd308360020160009054906101000a900473ffffffffffffffffffffffffffffffffffffffff1684600101546040518463ffffffff1660e01b815260040161083793929190611ada565b600060405180830381600087803b15801561085157600080fd5b505af1158015610865573d6000803e3d6000fd5b505050505b7fe40da2ed231723b222a7ba7da994c3afc3f83a51da76262083e38841e2da09828160000154826001015483600801548460070160019054906101000a900473ffffffffffffffffffffffffffffffffffffffff166040516108cf9493929190611d48565b60405180910390a16040518060400160405280601b81526020017f41756374696f6e20656e646564207375636365737366756c6c79210000000000815250915050919050565b60005481565b60045481565b60006005600083815260200190815260200160002090508181600001541461097e576040517f08c379a000000000000000000000000000000000000000000000000000000000815260040161097590611dd9565b60405180910390fd5b806006015442106109c4576040517f08c379a00000000000000000000000000000000000000000000000000000000081526004016109bb90611e45565b60405180910390fd5b3373ffffffffffffffffffffffffffffffffffffffff168160020160009054906101000a900473ffffffffffffffffffffffffffffffffffffffff1673ffffffffffffffffffffffffffffffffffffffff1603610a56576040517f08c379a0000000000000000000000000000000000000000000000000000000008152600401610a4d90611ed7565b60405180910390fd5b600034905081600801548111610aa1576040517f08c379a0000000000000000000000000000000000000000000000000000000008152600401610a9890611f43565b60405180910390fd5b6000610ad1838460070160019054906101000a900473ffffffffffffffffffffffffffffffffffffffff166116e1565b9050610b03838460070160019054906101000a900473ffffffffffffffffffffffffffffffffffffffff16600061172d565b610b0d8185611396565b610b1883338461172d565b338360070160016101000a81548173ffffffffffffffffffffffffffffffffffffffff021916908373ffffffffffffffffffffffffffffffffffffffff16021790555081836008018190555050505050565b600360009054906101000a900473ffffffffffffffffffffffffffffffffffffffff1673ffffffffffffffffffffffffffffffffffffffff166323b872dd3330846040518463ffffffff1660e01b8152600401610bc993929190611ada565b600060405180830381600087803b158015610be357600080fd5b505af1158015610bf7573d6000803e3d6000fd5b5050505060046000815480929190610c0e90611b40565b9190505550600060056000600454815260200190815260200160002090506004548160000181905550818160010181905550338160020160006101000a81548173ffffffffffffffffffffffffffffffffffffffff021916908373ffffffffffffffffffffffffffffffffffffffff1602179055506001816003018190555060018160070160006101000a81548160ff02191690831515021790555061012c8160040160006101000a81548167ffffffffffffffff021916908367ffffffffffffffff16021790555042816005018190555061012c42610cee9190611cf2565b81600601819055507fa9c8dfcda5664a5a124c713e386da27de87432d5b668e79458501eb296389ba7600454836005600060045481526020019081526020016000206003015460056000600454815260200190815260200160002060040160009054906101000a900467ffffffffffffffff16604051610d719493929190611f9e565b60405180910390a15050565b60056020528060005260406000206000915090508060000154908060010154908060020160009054906101000a900473ffffffffffffffffffffffffffffffffffffffff16908060030154908060040160009054906101000a900467ffffffffffffffff16908060050154908060060154908060070160009054906101000a900460ff16908060070160019054906101000a900473ffffffffffffffffffffffffffffffffffffffff1690806008015490508a565b60026020528060005260406000206000915090505481565b600060016000838152602001908152602001600020905081816000015414610ea7576040517f08c379a0000000000000000000000000000000000000000000000000000000008152600401610e9e9061202f565b60405180910390fd5b3373ffffffffffffffffffffffffffffffffffffffff168160020160009054906101000a900473ffffffffffffffffffffffffffffffffffffffff1673ffffffffffffffffffffffffffffffffffffffff1603610f39576040517f08c379a0000000000000000000000000000000000000000000000000000000008152600401610f30906120c1565b60405180910390fd5b8060040160009054906101000a900460ff1615610f8b576040517f08c379a0000000000000000000000000000000000000000000000000000000008152600401610f8290612153565b60405180910390fd5b8060040160019054906101000a900460ff1615610fdd576040517f08c379a0000000000000000000000000000000000000000000000000000000008152600401610fd4906121e5565b60405180910390fd5b80600301543414611023576040517f08c379a000000000000000000000000000000000000000000000000000000000815260040161101a90612277565b60405180910390fd5b600360009054906101000a900473ffffffffffffffffffffffffffffffffffffffff1673ffffffffffffffffffffffffffffffffffffffff166323b872dd303384600101546040518463ffffffff1660e01b815260040161108693929190611ada565b600060405180830381600087803b1580156110a057600080fd5b505af11580156110b4573d6000803e3d6000fd5b5050505060018160040160006101000a81548160ff02191690831515021790555034600260008360020160009054906101000a900473ffffffffffffffffffffffffffffffffffffffff1673ffffffffffffffffffffffffffffffffffffffff1673ffffffffffffffffffffffffffffffffffffffff16815260200190815260200160002060008282546111489190611cf2565b925050819055507fd9157c065213ada613694e84b1e27fe2efd62d85c6b82bd6c842a4999491e72a8282600101543360405161118693929190612297565b60405180910390a15050565b60016020528060005260406000206000915090508060000154908060010154908060020160009054906101000a900473ffffffffffffffffffffffffffffffffffffffff16908060030154908060040160009054906101000a900460ff16908060040160019054906101000a900460ff16905086565b6000600260003373ffffffffffffffffffffffffffffffffffffffff1673ffffffffffffffffffffffffffffffffffffffff168152602001908152602001600020541161128a576040517f08c379a000000000000000000000000000000000000000000000000000000000815260040161128190612340565b60405180910390fd5b6000600260003373ffffffffffffffffffffffffffffffffffffffff1673ffffffffffffffffffffffffffffffffffffffff1681526020019081526020016000205490506000600260003373ffffffffffffffffffffffffffffffffffffffff1673ffffffffffffffffffffffffffffffffffffffff168152602001908152602001600020819055503373ffffffffffffffffffffffffffffffffffffffff166108fc829081150290604051600060405180830381858888f19350505050158015611359573d6000803e3d6000fd5b507f4f0554190111f93f8c2ccef2cc41473f187d7f29ff5a5c308ca41f9dfe4e989a338260405161138b929190612360565b60405180910390a150565b60006005600083815260200190815260200160002090506113dd818260070160019054906101000a900473ffffffffffffffffffffffffffffffffffffffff16600061172d565b8060070160019054906101000a900473ffffffffffffffffffffffffffffffffffffffff1673ffffffffffffffffffffffffffffffffffffffff166108fc849081150290604051600060405180830381858888f19350505050158015611447573d6000803e3d6000fd5b50505050565b6000600160008381526020019081526020016000209050818160000154146114aa576040517f08c379a00000000000000000000000000000000000000000000000000000000081526004016114a19061202f565b60405180910390fd5b3373ffffffffffffffffffffffffffffffffffffffff168160020160009054906101000a900473ffffffffffffffffffffffffffffffffffffffff1673ffffffffffffffffffffffffffffffffffffffff161461153c576040517f08c379a0000000000000000000000000000000000000000000000000000000008152600401611533906123fb565b60405180910390fd5b600015158160040160009054906101000a900460ff16151514611594576040517f08c379a000000000000000000000000000000000000000000000000000000000815260040161158b9061248d565b60405180910390fd5b600015158160040160019054906101000a900460ff161515146115ec576040517f08c379a00000000000000000000000000000000000000000000000000000000081526004016115e39061251f565b60405180910390fd5b600360009054906101000a900473ffffffffffffffffffffffffffffffffffffffff1673ffffffffffffffffffffffffffffffffffffffff166323b872dd303384600101546040518463ffffffff1660e01b815260040161164f93929190611ada565b600060405180830381600087803b15801561166957600080fd5b505af115801561167d573d6000803e3d6000fd5b5050505060018160040160016101000a81548160ff0219169083151502179055507f5b166b4d0498ff8c4719999cb6154c5d197e6f020f9fbfcf9d347f84576cfab7828260010154336040516116d593929190612297565b60405180910390a15050565b60008260090160008373ffffffffffffffffffffffffffffffffffffffff1673ffffffffffffffffffffffffffffffffffffffff16815260200190815260200160002054905092915050565b808360090160008473ffffffffffffffffffffffffffffffffffffffff1673ffffffffffffffffffffffffffffffffffffffff16815260200190815260200160002081905550505050565b600080fd5b6000819050919050565b6117908161177d565b811461179b57600080fd5b50565b6000813590506117ad81611787565b92915050565b600080604083850312156117ca576117c9611778565b5b60006117d88582860161179e565b92505060206117e98582860161179e565b9150509250929050565b60006020828403121561180957611808611778565b5b60006118178482850161179e565b91505092915050565b600081519050919050565b600082825260208201905092915050565b60005b8381101561185a57808201518184015260208101905061183f565b83811115611869576000848401525b50505050565b6000601f19601f8301169050919050565b600061188b82611820565b611895818561182b565b93506118a581856020860161183c565b6118ae8161186f565b840191505092915050565b600060208201905081810360008301526118d38184611880565b905092915050565b6118e48161177d565b82525050565b60006020820190506118ff60008301846118db565b92915050565b600073ffffffffffffffffffffffffffffffffffffffff82169050919050565b600061193082611905565b9050919050565b61194081611925565b82525050565b600067ffffffffffffffff82169050919050565b61196381611946565b82525050565b60008115159050919050565b61197e81611969565b82525050565b60006101408201905061199a600083018d6118db565b6119a7602083018c6118db565b6119b4604083018b611937565b6119c1606083018a6118db565b6119ce608083018961195a565b6119db60a08301886118db565b6119e860c08301876118db565b6119f560e0830186611975565b611a03610100830185611937565b611a116101208301846118db565b9b9a5050505050505050505050565b611a2981611925565b8114611a3457600080fd5b50565b600081359050611a4681611a20565b92915050565b600060208284031215611a6257611a61611778565b5b6000611a7084828501611a37565b91505092915050565b600060c082019050611a8e60008301896118db565b611a9b60208301886118db565b611aa86040830187611937565b611ab560608301866118db565b611ac26080830185611975565b611acf60a0830184611975565b979650505050505050565b6000606082019050611aef6000830186611937565b611afc6020830185611937565b611b0960408301846118db565b949350505050565b7f4e487b7100000000000000000000000000000000000000000000000000000000600052601160045260246000fd5b6000611b4b8261177d565b91507fffffffffffffffffffffffffffffffffffffffffffffffffffffffffffffffff8203611b7d57611b7c611b11565b5b600182019050919050565b7f5468652061756374696f6e206d75737420657869737400000000000000000000600082015250565b6000611bbe60168361182b565b9150611bc982611b88565b602082019050919050565b60006020820190508181036000830152611bed81611bb1565b9050919050565b7f6e6f7420656e6465640000000000000000000000000000000000000000000000600082015250565b6000611c2a60098361182b565b9150611c3582611bf4565b602082019050919050565b60006020820190508181036000830152611c5981611c1d565b9050919050565b7f54686520697341637469766520697320616c72656164792073657420746f206660008201527f616c736521000000000000000000000000000000000000000000000000000000602082015250565b6000611cbc60258361182b565b9150611cc782611c60565b604082019050919050565b60006020820190508181036000830152611ceb81611caf565b9050919050565b6000611cfd8261177d565b9150611d088361177d565b9250827fffffffffffffffffffffffffffffffffffffffffffffffffffffffffffffffff03821115611d3d57611d3c611b11565b5b828201905092915050565b6000608082019050611d5d60008301876118db565b611d6a60208301866118db565b611d7760408301856118db565b611d846060830184611937565b95945050505050565b7f5468652061756374696f6e20646f6573206e6f74206578697374210000000000600082015250565b6000611dc3601b8361182b565b9150611dce82611d8d565b602082019050919050565b60006020820190508181036000830152611df281611db6565b9050919050565b7f5468652041756374696f6e2068617320616c726561647920656e646564210000600082015250565b6000611e2f601e8361182b565b9150611e3a82611df9565b602082019050919050565b60006020820190508181036000830152611e5e81611e22565b9050919050565b7f5468652073656c6c65722063616e206e6f7420706c616365206120626964206f60008201527f6e20686973206f776e204e465421000000000000000000000000000000000000602082015250565b6000611ec1602e8361182b565b9150611ecc82611e65565b604082019050919050565b60006020820190508181036000830152611ef081611eb4565b9050919050565b7f76616c7565203c20686967686573740000000000000000000000000000000000600082015250565b6000611f2d600f8361182b565b9150611f3882611ef7565b602082019050919050565b60006020820190508181036000830152611f5c81611f20565b9050919050565b6000819050919050565b6000611f88611f83611f7e84611946565b611f63565b61177d565b9050919050565b611f9881611f6d565b82525050565b6000608082019050611fb360008301876118db565b611fc060208301866118db565b611fcd60408301856118db565b611fda6060830184611f8f565b95945050505050565b7f546865206f66666572206d757374206578697374000000000000000000000000600082015250565b600061201960148361182b565b915061202482611fe3565b602082019050919050565b600060208201905081810360008301526120488161200c565b9050919050565b7f546865206f776e6572206f6620746865206f666665722063616e6e6f7420666960008201527f6c6c206974000000000000000000000000000000000000000000000000000000602082015250565b60006120ab60258361182b565b91506120b68261204f565b604082019050919050565b600060208201905081810360008301526120da8161209e565b9050919050565b7f416e206f666665722063616e6e6f742062652066756c66696c6c65642074776960008201527f6365000000000000000000000000000000000000000000000000000000000000602082015250565b600061213d60228361182b565b9150612148826120e1565b604082019050919050565b6000602082019050818103600083015261216c81612130565b9050919050565b7f412063616e63656c6c6564206f666665722063616e6e6f742062652066756c6660008201527f696c6c6564000000000000000000000000000000000000000000000000000000602082015250565b60006121cf60258361182b565b91506121da82612173565b604082019050919050565b600060208201905081810360008301526121fe816121c2565b9050919050565b7f5468652045544820616d6f756e742073686f756c64206d61746368207769746860008201527f20746865204e4654205072696365000000000000000000000000000000000000602082015250565b6000612261602e8361182b565b915061226c82612205565b604082019050919050565b6000602082019050818103600083015261229081612254565b9050919050565b60006060820190506122ac60008301866118db565b6122b960208301856118db565b6122c66040830184611937565b949350505050565b7f54686973207573657220686173206e6f2066756e647320746f20626520636c6160008201527f696d656400000000000000000000000000000000000000000000000000000000602082015250565b600061232a60248361182b565b9150612335826122ce565b604082019050919050565b600060208201905081810360008301526123598161231d565b9050919050565b60006040820190506123756000830185611937565b61238260208301846118db565b9392505050565b7f546865206f666665722063616e206f6e6c792062652063616e63656c6564206260008201527f7920746865206f776e6572000000000000000000000000000000000000000000602082015250565b60006123e5602b8361182b565b91506123f082612389565b604082019050919050565b60006020820190508181036000830152612414816123d8565b9050919050565b7f412066756c66696c6c6564206f666665722063616e6e6f742062652063616e6360008201527f656c6c6564000000000000000000000000000000000000000000000000000000602082015250565b600061247760258361182b565b91506124828261241b565b604082019050919050565b600060208201905081810360008301526124a68161246a565b9050919050565b7f416e206f666665722063616e6e6f742062652063616e63656c6c65642074776960008201527f6365000000000000000000000000000000000000000000000000000000000000602082015250565b600061250960228361182b565b9150612514826124ad565b604082019050919050565b60006020820190508181036000830152612538816124fc565b905091905056fea26469706673582212201d49227d1d8ef8dfa85539db73a75f4992747a0a64361ab1747609fc6cfc2ae764736f6c634300080d0033",
  "immutableReferences": {},
  "source": "// SPDX-License-Identifier: MIT\r\npragma solidity ^0.8.0;\r\n\r\nimport \"./NFTCollection.sol\";\r\n\r\n/// @title A marketplace where users can buy/sell their NFT by auction or offer\r\n/// @notice This contract provides you with every business logic behind the different market mechanisms\r\n/// @dev There are currently hardcoded attributes, e.g. duration of an auction, which later can be implemented so that an user can set his desired duration for the auction\r\ncontract NFTMarketplace {\r\n    uint256 public offerCount; /// Number of total created offers\r\n    mapping(uint256 => _Offer) public offers; /// Maps an offer struct to an specific offer ID\r\n    mapping(address => uint256) public userFunds; /// Maps an balance of funds an account has stored in the smart contract to a corresponding address\r\n    NFTCollection nftCollection;\r\n\r\n    /// @notice Offers allow other users (not the owner) to buy the NFT at a fixed price.\r\n    struct _Offer {\r\n        uint256 offerId;\r\n        uint256 id;\r\n        address user;\r\n        uint256 price;\r\n        bool fulfilled;\r\n        bool cancelled;\r\n    }\r\n\r\n    event Offer(\r\n        uint256 offerId,\r\n        uint256 id,\r\n        address user,\r\n        uint256 price,\r\n        bool fulfilled,\r\n        bool cancelled\r\n    );\r\n    /// @notice Is emitted once an offer is made\r\n    /// @param offerId The unique ID of the offer\r\n    /// @param id The unique ID of the NFT\r\n    /// @param newOwner The buyer of the NFT, which is set as the new owner\r\n    event OfferFilled(uint256 offerId, uint256 id, address newOwner);\r\n\r\n    /// @notice Is emitted once an offer is cancelled\r\n    /// @param offerId The unique ID of the offer\r\n    /// @param id The unique ID of the NFT\r\n    /// @param owner The seller of the NFT, which decided to not sell his NFT anymore\r\n    event OfferCancelled(uint256 offerId, uint256 id, address owner);\r\n\r\n    /// @notice Is emitted once a user claims its available funds\r\n    /// @param user The address of the user who claims the funds\r\n    /// @param amount The amount of Ether, the user has earned through his sales\r\n    event ClaimFunds(address user, uint256 amount);\r\n\r\n    /// @notice Passes every NFT stored in the collection for making them accessible for every type of market interactions\r\n    /// @param _nftCollection Consists of every NFT ever minted using our application\r\n    constructor(address _nftCollection) {\r\n        nftCollection = NFTCollection(_nftCollection);\r\n    }\r\n\r\n    /// @notice Sets the price at which the NFT can be bought from other users and puts the NFT for sale on the market\r\n    /// @param _id The token id of the NFT\r\n    /// @param _price The price at which the NFT can be bought\r\n    function makeOffer(uint256 _id, uint256 _price) public {\r\n        nftCollection.transferFrom(msg.sender, address(this), _id);\r\n        offerCount++;\r\n        offers[offerCount] = _Offer(\r\n            offerCount,\r\n            _id,\r\n            msg.sender,\r\n            _price,\r\n            false,\r\n            false\r\n        );\r\n        emit Offer(offerCount, _id, msg.sender, _price, false, false);\r\n    }\r\n\r\n    /// @notice The sender buys a NFT from the offers list\r\n    /// @param _offerId The ID of the offer matched with the NFT which the user wants to buy\r\n    function fillOffer(uint256 _offerId) public payable {\r\n        _Offer storage _offer = offers[_offerId];\r\n        require(_offer.offerId == _offerId, \"The offer must exist\"); /// Checks that the offer ID matches with a valid offer\r\n        require(_offer.user != msg.sender, \"The owner of the offer cannot fill it\"); /// Checks that the owner is not the buyer\r\n        require(!_offer.fulfilled, \"An offer cannot be fulfilled twice\"); /// Checks that the offer was not prior fulfilled\r\n        require(!_offer.cancelled, \"A cancelled offer cannot be fulfilled\"); ///Checks that offer is still active\r\n        require(msg.value == _offer.price, \"The ETH amount should match with the NFT Price\"); /// Checks that the amount send is matching with the intended price by the seller\r\n        nftCollection.transferFrom(address(this), msg.sender, _offer.id); /// Transfers the NFT to the buyer\r\n        _offer.fulfilled = true;\r\n        userFunds[_offer.user] += msg.value; /// Sellers user funds gets credited with the amount earned\r\n        emit OfferFilled(_offerId, _offer.id, msg.sender);\r\n    }\r\n\r\n    /// @notice Cancel an offer from the offers list. Only available to the owner of the offer\r\n    /// @param _offerId The ID of the offer which the user wants to cancel\r\n    function cancelOffer(uint256 _offerId) public {\r\n        _Offer storage _offer = offers[_offerId];\r\n        require(_offer.offerId == _offerId, \"The offer must exist\"); /// Checks that the offer ID matches with a valid offer\r\n        require(_offer.user == msg.sender, \"The offer can only be canceled by the owner\"); /// Checks that only the owner can cancel an offer\r\n        require(_offer.fulfilled == false, \"A fulfilled offer cannot be cancelled\"); /// Checks that only not fulfilled offers can be cancelled\r\n        require(_offer.cancelled == false, \"An offer cannot be cancelled twice\"); /// Checks that the offer was not prior cancelled\r\n        nftCollection.transferFrom(address(this), msg.sender, _offer.id); /// Transfers the NFT back to the seller\r\n        _offer.cancelled = true;\r\n        emit OfferCancelled(_offerId, _offer.id, msg.sender);\r\n    }\r\n\r\n    /// @notice The user can withdraw their funds made by selling a NFT\r\n    function claimFunds() public {\r\n        require(\r\n            userFunds[msg.sender] > 0,\r\n            \"This user has no funds to be claimed\"\r\n        );\r\n        uint256 currentBalance = userFunds[msg.sender];\r\n        userFunds[msg.sender] = 0; /// Sets the balance back to 0\r\n        payable(msg.sender).transfer(currentBalance);\r\n        emit ClaimFunds(msg.sender, currentBalance);\r\n        \r\n    }\r\n\r\n    //<-------------------------Implementing Auction mechnanism---------------------------------------->\r\n\r\n    uint256 public auctionCount; /// Number of total created auctions\r\n    mapping(uint256 => _Auction) public auctions; /// Maps auction struct to a corresponding auction ID\r\n\r\n    /// @notice Auction mechanism which allows user to participate in an auction\r\n    struct _Auction {\r\n        uint256 auctionId; /// ID of an auction\r\n        uint256 nftId; ///ID of a NFT\r\n        address seller; /// Address of a seller \r\n        uint256 startingPrice; /// Minimum amount the first bid has to surpass\r\n        uint64 duration; /// Duration (in seconds) of an auction\r\n        uint256 startedAt; /// Timestamp, when auction has started\r\n        uint256 endedAt; /// Timestamp, when auction will end/has ended\r\n        bool isActive; /// Current state of the auction\r\n        address highestBidder; /// Address of the highest bidder of an auction\r\n        uint256 highestBid; /// Amount of the highest bid\r\n        mapping(address => uint256) bids; /// Mapping to get the individual bids placed by severel bidder in an auction\r\n    }\r\n\r\n    /// @notice Is emitted once an aution is made\r\n    /// @param auctionId The unique ID of the auction\r\n    /// @param tokenId The unique ID of the NFT\r\n    /// @param startingPrice Currently not implemented. For future use: the Seller can set his own minimum starting price for the auction\r\n    /// @param duration The duration of the auction\r\n    event AuctionCreated(\r\n        uint256 auctionId,\r\n        uint256 tokenId,\r\n        uint256 startingPrice,\r\n        uint256 duration\r\n    );\r\n\r\n    /// @notice Is emitted once an aution has ended successfully\r\n    /// @param auctionId The unique ID of the auction\r\n    /// @param tokenId The unique ID of the NFT\r\n    /// @param winnersHighestBid The highest Bid made by an bidder\r\n    /// @param winner The bidder with the highest Bid, thus is the winner of the auction\r\n    event AuctionSuccessful(\r\n        uint256 auctionId,\r\n        uint256 tokenId,\r\n        uint256 winnersHighestBid,\r\n        address winner\r\n    );\r\n\r\n    /// @notice Makes the current highestBid made by any bidder in a specific auction accessible\r\n    /// @param auction Refers to the desired auction\r\n    /// @param bidder Refers to the bidder who placed a bid on this auction\r\n    /// @return uint256 The amount of the last bid this specific user has bidden \r\n    function getBids(_Auction storage auction, address bidder) internal returns (uint256) {\r\n        return auction.bids[bidder];\r\n    }\r\n\r\n    /// @notice Sets bid of a bidder to his amount placed in his bid\r\n    /// @param auction Refers to the desired auction\r\n    /// @param bidder Refers to the bidder who placed a bid on this auction\r\n    /// @param bid The amount of the bid this specific user has bidden \r\n    function setBids(_Auction storage auction, address bidder, uint256 bid) internal {\r\n        auction.bids[bidder] = bid;\r\n    }\r\n\r\n    /// @notice Transfers the NFT from seller to smart contract and emits Auction Event, thus starting the timer based on the duration\r\n    /// @param _nftId Refers to the NFT which is placed on the market by this auction\r\n    /// @dev the _auction.startingPrice is currently is without any functionality, but can be used for further implementations\r\n    function makeAuction(uint256 _nftId) public payable {\r\n        nftCollection.transferFrom(msg.sender, address(this), _nftId);\r\n        auctionCount++;\r\n        _Auction storage _auction = auctions[auctionCount];\r\n        _auction.auctionId = auctionCount;\r\n        _auction.nftId = _nftId;    \r\n        _auction.seller = msg.sender;\r\n        _auction.startingPrice = 1;\r\n        _auction.isActive = true;\r\n        _auction.duration = 300;\r\n        _auction.startedAt = block.timestamp;\r\n        _auction.endedAt = block.timestamp + 300;\r\n\r\n        emit AuctionCreated(\r\n            auctionCount,\r\n            _nftId,\r\n            auctions[auctionCount].startingPrice,\r\n            auctions[auctionCount].duration\r\n        );\r\n    }\r\n\r\n    /// @notice Places a bid on a certain running NFT with a determined amount entered by the user, thus making him the highest bidder\r\n    /// @param _auctionId Refers to a certain auction ID\r\n    function fillBid(uint256 _auctionId) public payable {\r\n        _Auction storage _auction = auctions[_auctionId];\r\n        require(_auction.auctionId == _auctionId, \"The auction does not exist!\"); ///Checks that there is a valid auction\r\n        require(block.timestamp < _auction.endedAt, \"The Auction has already ended!\"); //Checks that the auction is still running\r\n        require(_auction.seller != msg.sender, \"The seller can not place a bid on his own NFT!\"); ///Checks that the seller cannot bid on his own NFT\r\n        uint256 newBid = msg.value;\r\n        require(newBid > _auction.highestBid, \"value < highest\"); //Checks that bid is higher than previous highest bid (see autoBookBack)\r\n        uint256 cumulatedBids = getBids(_auction, _auction.highestBidder); \r\n        setBids(_auction,  _auction.highestBidder, 0); //Set current Bids of the user on 0 to counter re-entry attacks\r\n        autoBookBack(cumulatedBids, _auctionId); //Book back older bids in case\r\n        setBids(_auction, msg.sender, newBid); //Set current Bids on new Bid\r\n        _auction.highestBidder = msg.sender;\r\n        _auction.highestBid = newBid;\r\n    }\r\n\r\n    /// @notice Is called after the auction has ended  if someone bid on the NFT, it is transferred to the highest bidder, else transferred back to the seller\r\n    /// @param _auctionId Refers to a certain auction ID\r\n    /// @dev because there is currently no option to call this funcition automatically when the auction countdown reaches 0, this function is connected to a \"Redeem NFT\"-Button in the front-end.\r\n    /// @dev further automated functionality could be implemented as Ethereum introduces this possibiliy to call a function from external at a specific time\r\n    /// @return auction Returns the auction struct behind the given auction ID\r\n    function end(uint256 _auctionId) public payable returns (string memory){\r\n        _Auction storage _auction = auctions[_auctionId];\r\n        require(_auction.auctionId == _auctionId, \"The auction must exist\"); ///Checks that there is a valid auction\r\n        require(block.timestamp >= _auction.endedAt, \"not ended\"); ///Checks that the timer has already ended\r\n        require(_auction.isActive == true, \"The isActive is already set to false!\"); ///Checks whether the end-function has alreay been called\r\n        _auction.isActive = false;\r\n        ///If there was a bid, transfer the NFT from the contract to the address of the highest bidder\r\n        if (_auction.highestBidder != address(0)) {\r\n            nftCollection.transferFrom(\r\n                address(this),\r\n                _auction.highestBidder,\r\n                _auction.nftId\r\n            );            \r\n            userFunds[_auction.seller] += _auction.highestBid; ///User funds balance of the seller get the amount of the highest bid. Seller can claim all of his earned funds by calling \"claimFunds\"-function\r\n        } \r\n        /// If there was no bid, transfer the NFT from the contract back to the address of the seller\r\n        else {\r\n            nftCollection.transferFrom(\r\n                address(this),\r\n                _auction.seller,\r\n                _auction.nftId\r\n            );  \r\n        }\r\n\r\n        emit AuctionSuccessful(\r\n            _auction.auctionId,\r\n            _auction.nftId,\r\n            _auction.highestBid,\r\n            _auction.highestBidder\r\n        );\r\n        return(\"Auction ended successfully!\");\r\n    }\r\n\r\n    /// @notice Books back all transfered ether of previous bids in case a new highest bid was submitted \r\n    /// @param amount The amount placed in the highest bid, before it got overbidden\r\n    /// @param _auctionId Refers to a certain auction ID\r\n    function autoBookBack(uint256 amount, uint256 _auctionId) public {\r\n        _Auction storage _auction = auctions[_auctionId];\r\n        setBids(_auction, _auction.highestBidder, 0); ///Again set Bids on 0 in case of re-entry attack\r\n        payable(_auction.highestBidder).transfer(amount);\r\n    }\r\n\r\n    /// Fallback: reverts if Ether is sent to this smart-contract by mistake\r\n    fallback() external {\r\n        revert();\r\n    }\r\n}\r\n",
  "sourcePath": "C:\\home\\pablo\\nft-marketplace\\src\\contracts\\NFTMarketplace.sol",
  "compiler": {
    "name": "solc",
    "version": "0.8.13+commit.abaa5c0e.Emscripten.clang"
  },
  "schemaVersion": "3.4.6",
  "updatedAt": "2022-05-08T10:43:30.485Z",
  "networkType": "ethereum",
  "devdoc": {
    "details": "There are currently hardcoded attributes, e.g. duration of an auction, which later can be implemented so that an user can set his desired duration for the auction",
    "events": {
      "AuctionCreated(uint256,uint256,uint256,uint256)": {
        "params": {
          "auctionId": "The unique ID of the auction",
          "duration": "The duration of the auction",
          "startingPrice": "Currently not implemented. For future use: the Seller can set his own minimum starting price for the auction",
          "tokenId": "The unique ID of the NFT"
        }
      },
      "AuctionSuccessful(uint256,uint256,uint256,address)": {
        "params": {
          "auctionId": "The unique ID of the auction",
          "tokenId": "The unique ID of the NFT",
          "winner": "The bidder with the highest Bid, thus is the winner of the auction",
          "winnersHighestBid": "The highest Bid made by an bidder"
        }
      },
      "ClaimFunds(address,uint256)": {
        "params": {
          "amount": "The amount of Ether, the user has earned through his sales",
          "user": "The address of the user who claims the funds"
        }
      },
      "OfferCancelled(uint256,uint256,address)": {
        "params": {
          "id": "The unique ID of the NFT",
          "offerId": "The unique ID of the offer",
          "owner": "The seller of the NFT, which decided to not sell his NFT anymore"
        }
      },
      "OfferFilled(uint256,uint256,address)": {
        "params": {
          "id": "The unique ID of the NFT",
          "newOwner": "The buyer of the NFT, which is set as the new owner",
          "offerId": "The unique ID of the offer"
        }
      }
    },
    "kind": "dev",
    "methods": {
      "autoBookBack(uint256,uint256)": {
        "params": {
          "_auctionId": "Refers to a certain auction ID",
          "amount": "The amount placed in the highest bid, before it got overbidden"
        }
      },
      "cancelOffer(uint256)": {
        "params": {
          "_offerId": "The ID of the offer which the user wants to cancel"
        }
      },
      "constructor": {
        "params": {
          "_nftCollection": "Consists of every NFT ever minted using our application"
        }
      },
      "end(uint256)": {
        "details": "because there is currently no option to call this funcition automatically when the auction countdown reaches 0, this function is connected to a \"Redeem NFT\"-Button in the front-end.further automated functionality could be implemented as Ethereum introduces this possibiliy to call a function from external at a specific time",
        "params": {
          "_auctionId": "Refers to a certain auction ID"
        },
        "returns": {
          "_0": "auction Returns the auction struct behind the given auction ID"
        }
      },
      "fillBid(uint256)": {
        "params": {
          "_auctionId": "Refers to a certain auction ID"
        }
      },
      "fillOffer(uint256)": {
        "params": {
          "_offerId": "The ID of the offer matched with the NFT which the user wants to buy"
        }
      },
      "makeAuction(uint256)": {
        "details": "the _auction.startingPrice is currently is without any functionality, but can be used for further implementations",
        "params": {
          "_nftId": "Refers to the NFT which is placed on the market by this auction"
        }
      },
      "makeOffer(uint256,uint256)": {
        "params": {
          "_id": "The token id of the NFT",
          "_price": "The price at which the NFT can be bought"
        }
      }
    },
    "title": "A marketplace where users can buy/sell their NFT by auction or offer",
    "version": 1
  },
  "userdoc": {
    "events": {
      "AuctionCreated(uint256,uint256,uint256,uint256)": {
        "notice": "Is emitted once an aution is made"
      },
      "AuctionSuccessful(uint256,uint256,uint256,address)": {
        "notice": "Is emitted once an aution has ended successfully"
      },
      "ClaimFunds(address,uint256)": {
        "notice": "Is emitted once a user claims its available funds"
      },
      "OfferCancelled(uint256,uint256,address)": {
        "notice": "Is emitted once an offer is cancelled"
      },
      "OfferFilled(uint256,uint256,address)": {
        "notice": "Is emitted once an offer is made"
      }
    },
    "kind": "user",
    "methods": {
      "auctions(uint256)": {
        "notice": "Number of total created auctions"
      },
      "autoBookBack(uint256,uint256)": {
        "notice": "Books back all transfered ether of previous bids in case a new highest bid was submitted "
      },
      "cancelOffer(uint256)": {
        "notice": "Cancel an offer from the offers list. Only available to the owner of the offer"
      },
      "claimFunds()": {
        "notice": "The user can withdraw their funds made by selling a NFT"
      },
      "constructor": {
        "notice": "Passes every NFT stored in the collection for making them accessible for every type of market interactions"
      },
      "end(uint256)": {
        "notice": "Is called after the auction has ended  if someone bid on the NFT, it is transferred to the highest bidder, else transferred back to the seller"
      },
      "fillBid(uint256)": {
        "notice": "Places a bid on a certain running NFT with a determined amount entered by the user, thus making him the highest bidder"
      },
      "fillOffer(uint256)": {
        "notice": "The sender buys a NFT from the offers list"
      },
      "makeAuction(uint256)": {
        "notice": "Transfers the NFT from seller to smart contract and emits Auction Event, thus starting the timer based on the duration"
      },
      "makeOffer(uint256,uint256)": {
        "notice": "Sets the price at which the NFT can be bought from other users and puts the NFT for sale on the market"
      },
      "offers(uint256)": {
        "notice": "Number of total created offers"
      },
      "userFunds(address)": {
        "notice": "Maps an offer struct to an specific offer ID"
      }
    },
    "notice": "This contract provides you with every business logic behind the different market mechanisms",
    "version": 1
  }
}