{
  "contractName": "NFTMarketplace",
  "abi": [
    {
      "inputs": [
        {
          "internalType": "address",
          "name": "_nftCollection",
          "type": "address"
        }
      ],
      "stateMutability": "nonpayable",
      "type": "constructor"
    },
    {
      "anonymous": false,
      "inputs": [
        {
          "indexed": false,
          "internalType": "address",
          "name": "user",
          "type": "address"
        },
        {
          "indexed": false,
          "internalType": "uint256",
          "name": "amount",
          "type": "uint256"
        }
      ],
      "name": "ClaimFunds",
      "type": "event"
    },
    {
      "anonymous": false,
      "inputs": [
        {
          "indexed": false,
          "internalType": "uint256",
          "name": "offerId",
          "type": "uint256"
        },
        {
          "indexed": false,
          "internalType": "uint256",
          "name": "id",
          "type": "uint256"
        },
        {
          "indexed": false,
          "internalType": "address",
          "name": "user",
          "type": "address"
        },
        {
          "indexed": false,
          "internalType": "uint256",
          "name": "price",
          "type": "uint256"
        },
        {
          "indexed": false,
          "internalType": "bool",
          "name": "fulfilled",
          "type": "bool"
        },
        {
          "indexed": false,
          "internalType": "bool",
          "name": "cancelled",
          "type": "bool"
        }
      ],
      "name": "Offer",
      "type": "event"
    },
    {
      "anonymous": false,
      "inputs": [
        {
          "indexed": false,
          "internalType": "uint256",
          "name": "offerId",
          "type": "uint256"
        },
        {
          "indexed": false,
          "internalType": "uint256",
          "name": "id",
          "type": "uint256"
        },
        {
          "indexed": false,
          "internalType": "address",
          "name": "owner",
          "type": "address"
        }
      ],
      "name": "OfferCancelled",
      "type": "event"
    },
    {
      "anonymous": false,
      "inputs": [
        {
          "indexed": false,
          "internalType": "uint256",
          "name": "offerId",
          "type": "uint256"
        },
        {
          "indexed": false,
          "internalType": "uint256",
          "name": "id",
          "type": "uint256"
        },
        {
          "indexed": false,
          "internalType": "address",
          "name": "newOwner",
          "type": "address"
        }
      ],
      "name": "OfferFilled",
      "type": "event"
    },
    {
      "stateMutability": "nonpayable",
      "type": "fallback"
    },
    {
      "inputs": [],
      "name": "offerCount",
      "outputs": [
        {
          "internalType": "uint256",
          "name": "",
          "type": "uint256"
        }
      ],
      "stateMutability": "view",
      "type": "function",
      "constant": true
    },
    {
      "inputs": [
        {
          "internalType": "uint256",
          "name": "",
          "type": "uint256"
        }
      ],
      "name": "offers",
      "outputs": [
        {
          "internalType": "uint256",
          "name": "offerId",
          "type": "uint256"
        },
        {
          "internalType": "uint256",
          "name": "id",
          "type": "uint256"
        },
        {
          "internalType": "address",
          "name": "user",
          "type": "address"
        },
        {
          "internalType": "uint256",
          "name": "price",
          "type": "uint256"
        },
        {
          "internalType": "bool",
          "name": "fulfilled",
          "type": "bool"
        },
        {
          "internalType": "bool",
          "name": "cancelled",
          "type": "bool"
        }
      ],
      "stateMutability": "view",
      "type": "function",
      "constant": true
    },
    {
      "inputs": [
        {
          "internalType": "address",
          "name": "",
          "type": "address"
        }
      ],
      "name": "userFunds",
      "outputs": [
        {
          "internalType": "uint256",
          "name": "",
          "type": "uint256"
        }
      ],
      "stateMutability": "view",
      "type": "function",
      "constant": true
    },
    {
      "inputs": [
        {
          "internalType": "address",
          "name": "",
          "type": "address"
        }
      ],
      "name": "userlist",
      "outputs": [
        {
          "internalType": "string",
          "name": "_userName",
          "type": "string"
        },
        {
          "internalType": "address",
          "name": "_address",
          "type": "address"
        },
        {
          "internalType": "bool",
          "name": "set",
          "type": "bool"
        }
      ],
      "stateMutability": "view",
      "type": "function",
      "constant": true
    },
    {
      "inputs": [
        {
          "internalType": "address",
          "name": "_address",
          "type": "address"
        }
      ],
      "name": "findUsername",
      "outputs": [
        {
          "internalType": "string",
          "name": "",
          "type": "string"
        }
      ],
      "stateMutability": "nonpayable",
      "type": "function"
    },
    {
      "inputs": [
        {
          "internalType": "address",
          "name": "_address",
          "type": "address"
        },
        {
          "internalType": "string",
          "name": "_userName",
          "type": "string"
        }
      ],
      "name": "createUser",
      "outputs": [],
      "stateMutability": "nonpayable",
      "type": "function"
    },
    {
      "inputs": [
        {
          "internalType": "uint256",
          "name": "_id",
          "type": "uint256"
        },
        {
          "internalType": "uint256",
          "name": "_price",
          "type": "uint256"
        }
      ],
      "name": "makeOffer",
      "outputs": [],
      "stateMutability": "nonpayable",
      "type": "function"
    },
    {
      "inputs": [
        {
          "internalType": "uint256",
          "name": "_offerId",
          "type": "uint256"
        }
      ],
      "name": "fillOffer",
      "outputs": [],
      "stateMutability": "payable",
      "type": "function",
      "payable": true
    },
    {
      "inputs": [
        {
          "internalType": "uint256",
          "name": "_offerId",
          "type": "uint256"
        }
      ],
      "name": "cancelOffer",
      "outputs": [],
      "stateMutability": "nonpayable",
      "type": "function"
    },
    {
      "inputs": [],
      "name": "claimFunds",
      "outputs": [],
      "stateMutability": "nonpayable",
      "type": "function"
    }
  ],
  "bytecode": "0x60806040523480156200001157600080fd5b5060405162001cfa38038062001cfa8339818101604052810190620000379190620000e9565b80600460006101000a81548173ffffffffffffffffffffffffffffffffffffffff021916908373ffffffffffffffffffffffffffffffffffffffff160217905550506200011b565b600080fd5b600073ffffffffffffffffffffffffffffffffffffffff82169050919050565b6000620000b18262000084565b9050919050565b620000c381620000a4565b8114620000cf57600080fd5b50565b600081519050620000e381620000b8565b92915050565b6000602082840312156200010257620001016200007f565b5b60006200011284828501620000d2565b91505092915050565b611bcf806200012b6000396000f3fe6080604052600436106100955760003560e01c80638a72ea6a116100595780638a72ea6a14610192578063ac307773146101d4578063c444e19e146101eb578063ef706adf1461022a578063f9bcd5451461025357610096565b806305b7cdd3146100a85780631115c24d146100d157806328627a44146100fc5780638387c6e11461013957806385dba8611461017657610096565b5b3480156100a257600080fd5b50600080fd5b3480156100b457600080fd5b506100cf60048036038101906100ca91906110a2565b61027c565b005b3480156100dd57600080fd5b506100e6610473565b6040516100f391906110f1565b60405180910390f35b34801561010857600080fd5b50610123600480360381019061011e919061116a565b610479565b6040516101309190611230565b60405180910390f35b34801561014557600080fd5b50610160600480360381019061015b919061116a565b61054d565b60405161016d91906110f1565b60405180910390f35b610190600480360381019061018b9190611252565b610565565b005b34801561019e57600080fd5b506101b960048036038101906101b49190611252565b6108ad565b6040516101cb969594939291906112a9565b60405180910390f35b3480156101e057600080fd5b506101e9610923565b005b3480156101f757600080fd5b50610212600480360381019061020d919061116a565b610aea565b6040516102219392919061130a565b60405180910390f35b34801561023657600080fd5b50610251600480360381019061024c9190611252565b610bc9565b005b34801561025f57600080fd5b5061027a6004803603810190610275919061147d565b610e5d565b005b600460009054906101000a900473ffffffffffffffffffffffffffffffffffffffff1673ffffffffffffffffffffffffffffffffffffffff166323b872dd3330856040518463ffffffff1660e01b81526004016102db939291906114d9565b600060405180830381600087803b1580156102f557600080fd5b505af1158015610309573d6000803e3d6000fd5b5050505060008081548092919061031f9061153f565b91905055506040518060c0016040528060005481526020018381526020013373ffffffffffffffffffffffffffffffffffffffff168152602001828152602001600015158152602001600015158152506001600080548152602001908152602001600020600082015181600001556020820151816001015560408201518160020160006101000a81548173ffffffffffffffffffffffffffffffffffffffff021916908373ffffffffffffffffffffffffffffffffffffffff1602179055506060820151816003015560808201518160040160006101000a81548160ff02191690831515021790555060a08201518160040160016101000a81548160ff0219169083151502179055509050507f93e711896d4ef527d199d7e101922e20f918cbb248a0fb0977c52fda24aa1f1d600054833384600080604051610467969594939291906112a9565b60405180910390a15050565b60005481565b6060600360008373ffffffffffffffffffffffffffffffffffffffff1673ffffffffffffffffffffffffffffffffffffffff16815260200190815260200160002060000180546104c8906115b6565b80601f01602080910402602001604051908101604052809291908181526020018280546104f4906115b6565b80156105415780601f1061051657610100808354040283529160200191610541565b820191906000526020600020905b81548152906001019060200180831161052457829003601f168201915b50505050509050919050565b60026020528060005260406000206000915090505481565b6000600160008381526020019081526020016000209050818160000154146105c2576040517f08c379a00000000000000000000000000000000000000000000000000000000081526004016105b990611633565b60405180910390fd5b3373ffffffffffffffffffffffffffffffffffffffff168160020160009054906101000a900473ffffffffffffffffffffffffffffffffffffffff1673ffffffffffffffffffffffffffffffffffffffff1603610654576040517f08c379a000000000000000000000000000000000000000000000000000000000815260040161064b906116c5565b60405180910390fd5b8060040160009054906101000a900460ff16156106a6576040517f08c379a000000000000000000000000000000000000000000000000000000000815260040161069d90611757565b60405180910390fd5b8060040160019054906101000a900460ff16156106f8576040517f08c379a00000000000000000000000000000000000000000000000000000000081526004016106ef906117e9565b60405180910390fd5b8060030154341461073e576040517f08c379a00000000000000000000000000000000000000000000000000000000081526004016107359061187b565b60405180910390fd5b600460009054906101000a900473ffffffffffffffffffffffffffffffffffffffff1673ffffffffffffffffffffffffffffffffffffffff166323b872dd303384600101546040518463ffffffff1660e01b81526004016107a1939291906114d9565b600060405180830381600087803b1580156107bb57600080fd5b505af11580156107cf573d6000803e3d6000fd5b5050505060018160040160006101000a81548160ff02191690831515021790555034600260008360020160009054906101000a900473ffffffffffffffffffffffffffffffffffffffff1673ffffffffffffffffffffffffffffffffffffffff1673ffffffffffffffffffffffffffffffffffffffff1681526020019081526020016000206000828254610863919061189b565b925050819055507fd9157c065213ada613694e84b1e27fe2efd62d85c6b82bd6c842a4999491e72a828260010154336040516108a1939291906118f1565b60405180910390a15050565b60016020528060005260406000206000915090508060000154908060010154908060020160009054906101000a900473ffffffffffffffffffffffffffffffffffffffff16908060030154908060040160009054906101000a900460ff16908060040160019054906101000a900460ff16905086565b6000600260003373ffffffffffffffffffffffffffffffffffffffff1673ffffffffffffffffffffffffffffffffffffffff16815260200190815260200160002054116109a5576040517f08c379a000000000000000000000000000000000000000000000000000000000815260040161099c9061199a565b60405180910390fd5b3373ffffffffffffffffffffffffffffffffffffffff166108fc600260003373ffffffffffffffffffffffffffffffffffffffff1673ffffffffffffffffffffffffffffffffffffffff168152602001908152602001600020549081150290604051600060405180830381858888f19350505050158015610a2a573d6000803e3d6000fd5b507f4f0554190111f93f8c2ccef2cc41473f187d7f29ff5a5c308ca41f9dfe4e989a33600260003373ffffffffffffffffffffffffffffffffffffffff1673ffffffffffffffffffffffffffffffffffffffff16815260200190815260200160002054604051610a9b9291906119ba565b60405180910390a16000600260003373ffffffffffffffffffffffffffffffffffffffff1673ffffffffffffffffffffffffffffffffffffffff16815260200190815260200160002081905550565b6003602052806000526040600020600091509050806000018054610b0d906115b6565b80601f0160208091040260200160405190810160405280929190818152602001828054610b39906115b6565b8015610b865780601f10610b5b57610100808354040283529160200191610b86565b820191906000526020600020905b815481529060010190602001808311610b6957829003601f168201915b5050505050908060010160009054906101000a900473ffffffffffffffffffffffffffffffffffffffff16908060010160149054906101000a900460ff16905083565b600060016000838152602001908152602001600020905081816000015414610c26576040517f08c379a0000000000000000000000000000000000000000000000000000000008152600401610c1d90611633565b60405180910390fd5b3373ffffffffffffffffffffffffffffffffffffffff168160020160009054906101000a900473ffffffffffffffffffffffffffffffffffffffff1673ffffffffffffffffffffffffffffffffffffffff1614610cb8576040517f08c379a0000000000000000000000000000000000000000000000000000000008152600401610caf90611a55565b60405180910390fd5b600015158160040160009054906101000a900460ff16151514610d10576040517f08c379a0000000000000000000000000000000000000000000000000000000008152600401610d0790611ae7565b60405180910390fd5b600015158160040160019054906101000a900460ff16151514610d68576040517f08c379a0000000000000000000000000000000000000000000000000000000008152600401610d5f90611b79565b60405180910390fd5b600460009054906101000a900473ffffffffffffffffffffffffffffffffffffffff1673ffffffffffffffffffffffffffffffffffffffff166323b872dd303384600101546040518463ffffffff1660e01b8152600401610dcb939291906114d9565b600060405180830381600087803b158015610de557600080fd5b505af1158015610df9573d6000803e3d6000fd5b5050505060018160040160016101000a81548160ff0219169083151502179055507f5b166b4d0498ff8c4719999cb6154c5d197e6f020f9fbfcf9d347f84576cfab782826001015433604051610e51939291906118f1565b60405180910390a15050565b600360008373ffffffffffffffffffffffffffffffffffffffff1673ffffffffffffffffffffffffffffffffffffffff16815260200190815260200160002060010160149054906101000a900460ff1615610eb757600080fd5b60405180606001604052808281526020018373ffffffffffffffffffffffffffffffffffffffff16815260200160011515815250600360008473ffffffffffffffffffffffffffffffffffffffff1673ffffffffffffffffffffffffffffffffffffffff1681526020019081526020016000206000820151816000019080519060200190610f46929190610fb5565b5060208201518160010160006101000a81548173ffffffffffffffffffffffffffffffffffffffff021916908373ffffffffffffffffffffffffffffffffffffffff16021790555060408201518160010160146101000a81548160ff0219169083151502179055509050505050565b828054610fc1906115b6565b90600052602060002090601f016020900481019282610fe3576000855561102a565b82601f10610ffc57805160ff191683800117855561102a565b8280016001018555821561102a579182015b8281111561102957825182559160200191906001019061100e565b5b509050611037919061103b565b5090565b5b8082111561105457600081600090555060010161103c565b5090565b6000604051905090565b600080fd5b600080fd5b6000819050919050565b61107f8161106c565b811461108a57600080fd5b50565b60008135905061109c81611076565b92915050565b600080604083850312156110b9576110b8611062565b5b60006110c78582860161108d565b92505060206110d88582860161108d565b9150509250929050565b6110eb8161106c565b82525050565b600060208201905061110660008301846110e2565b92915050565b600073ffffffffffffffffffffffffffffffffffffffff82169050919050565b60006111378261110c565b9050919050565b6111478161112c565b811461115257600080fd5b50565b6000813590506111648161113e565b92915050565b6000602082840312156111805761117f611062565b5b600061118e84828501611155565b91505092915050565b600081519050919050565b600082825260208201905092915050565b60005b838110156111d15780820151818401526020810190506111b6565b838111156111e0576000848401525b50505050565b6000601f19601f8301169050919050565b600061120282611197565b61120c81856111a2565b935061121c8185602086016111b3565b611225816111e6565b840191505092915050565b6000602082019050818103600083015261124a81846111f7565b905092915050565b60006020828403121561126857611267611062565b5b60006112768482850161108d565b91505092915050565b6112888161112c565b82525050565b60008115159050919050565b6112a38161128e565b82525050565b600060c0820190506112be60008301896110e2565b6112cb60208301886110e2565b6112d8604083018761127f565b6112e560608301866110e2565b6112f2608083018561129a565b6112ff60a083018461129a565b979650505050505050565b6000606082019050818103600083015261132481866111f7565b9050611333602083018561127f565b611340604083018461129a565b949350505050565b600080fd5b600080fd5b7f4e487b7100000000000000000000000000000000000000000000000000000000600052604160045260246000fd5b61138a826111e6565b810181811067ffffffffffffffff821117156113a9576113a8611352565b5b80604052505050565b60006113bc611058565b90506113c88282611381565b919050565b600067ffffffffffffffff8211156113e8576113e7611352565b5b6113f1826111e6565b9050602081019050919050565b82818337600083830152505050565b600061142061141b846113cd565b6113b2565b90508281526020810184848401111561143c5761143b61134d565b5b6114478482856113fe565b509392505050565b600082601f83011261146457611463611348565b5b813561147484826020860161140d565b91505092915050565b6000806040838503121561149457611493611062565b5b60006114a285828601611155565b925050602083013567ffffffffffffffff8111156114c3576114c2611067565b5b6114cf8582860161144f565b9150509250929050565b60006060820190506114ee600083018661127f565b6114fb602083018561127f565b61150860408301846110e2565b949350505050565b7f4e487b7100000000000000000000000000000000000000000000000000000000600052601160045260246000fd5b600061154a8261106c565b91507fffffffffffffffffffffffffffffffffffffffffffffffffffffffffffffffff820361157c5761157b611510565b5b600182019050919050565b7f4e487b7100000000000000000000000000000000000000000000000000000000600052602260045260246000fd5b600060028204905060018216806115ce57607f821691505b6020821081036115e1576115e0611587565b5b50919050565b7f546865206f66666572206d757374206578697374000000000000000000000000600082015250565b600061161d6014836111a2565b9150611628826115e7565b602082019050919050565b6000602082019050818103600083015261164c81611610565b9050919050565b7f546865206f776e6572206f6620746865206f666665722063616e6e6f7420666960008201527f6c6c206974000000000000000000000000000000000000000000000000000000602082015250565b60006116af6025836111a2565b91506116ba82611653565b604082019050919050565b600060208201905081810360008301526116de816116a2565b9050919050565b7f416e206f666665722063616e6e6f742062652066756c66696c6c65642074776960008201527f6365000000000000000000000000000000000000000000000000000000000000602082015250565b60006117416022836111a2565b915061174c826116e5565b604082019050919050565b6000602082019050818103600083015261177081611734565b9050919050565b7f412063616e63656c6c6564206f666665722063616e6e6f742062652066756c6660008201527f696c6c6564000000000000000000000000000000000000000000000000000000602082015250565b60006117d36025836111a2565b91506117de82611777565b604082019050919050565b60006020820190508181036000830152611802816117c6565b9050919050565b7f5468652045544820616d6f756e742073686f756c64206d61746368207769746860008201527f20746865204e4654205072696365000000000000000000000000000000000000602082015250565b6000611865602e836111a2565b915061187082611809565b604082019050919050565b6000602082019050818103600083015261189481611858565b9050919050565b60006118a68261106c565b91506118b18361106c565b9250827fffffffffffffffffffffffffffffffffffffffffffffffffffffffffffffffff038211156118e6576118e5611510565b5b828201905092915050565b600060608201905061190660008301866110e2565b61191360208301856110e2565b611920604083018461127f565b949350505050565b7f54686973207573657220686173206e6f2066756e647320746f20626520636c6160008201527f696d656400000000000000000000000000000000000000000000000000000000602082015250565b60006119846024836111a2565b915061198f82611928565b604082019050919050565b600060208201905081810360008301526119b381611977565b9050919050565b60006040820190506119cf600083018561127f565b6119dc60208301846110e2565b9392505050565b7f546865206f666665722063616e206f6e6c792062652063616e63656c6564206260008201527f7920746865206f776e6572000000000000000000000000000000000000000000602082015250565b6000611a3f602b836111a2565b9150611a4a826119e3565b604082019050919050565b60006020820190508181036000830152611a6e81611a32565b9050919050565b7f412066756c66696c6c6564206f666665722063616e6e6f742062652063616e6360008201527f656c6c6564000000000000000000000000000000000000000000000000000000602082015250565b6000611ad16025836111a2565b9150611adc82611a75565b604082019050919050565b60006020820190508181036000830152611b0081611ac4565b9050919050565b7f416e206f666665722063616e6e6f742062652063616e63656c6c65642074776960008201527f6365000000000000000000000000000000000000000000000000000000000000602082015250565b6000611b636022836111a2565b9150611b6e82611b07565b604082019050919050565b60006020820190508181036000830152611b9281611b56565b905091905056fea264697066735822122013489257c818f2c4f77fe735164ca0e39360eb038005a404b68628a7486cc6d664736f6c634300080d0033",
  "immutableReferences": {},
  "source": "// SPDX-License-Identifier: MIT\npragma solidity ^0.8.0;\n\nimport \"./NFTCollection.sol\";\n\ncontract NFTMarketplace {\n    uint256 public offerCount;\n    mapping(uint256 => _Offer) public offers;\n    mapping(address => uint256) public userFunds;\n    mapping(address => user) public userlist;\n    NFTCollection nftCollection;\n\n    // Offers allow other users (not the owner) to buy the NFT at a fixed price.\n    struct _Offer {\n        uint256 offerId;\n        uint256 id;\n        address user;\n        uint256 price;\n        bool fulfilled;\n        bool cancelled;\n    }\n\n    function findUsername(address _address) public returns (string memory)\n    {\n        return userlist[_address]._userName;\n    }\n\n    function createUser(address _address, string memory _userName ) public {\n        // Check that the user did not already exist:\n        require(!userlist[_address].set);\n        //Store the user\n        userlist[_address] = user({_userName: _userName, _address: _address, set: true});\n    }\n\n    struct user {\n        string _userName;\n        address _address;\n        bool set; \n    }\n    event Offer(\n        uint256 offerId,\n        uint256 id,\n        address user,\n        uint256 price,\n        bool fulfilled,\n        bool cancelled\n    );\n\n    event OfferFilled(uint256 offerId, uint256 id, address newOwner);\n    event OfferCancelled(uint256 offerId, uint256 id, address owner);\n    event ClaimFunds(address user, uint256 amount);\n\n    constructor(address _nftCollection) {\n        nftCollection = NFTCollection(_nftCollection);\n    }\n\n    /// @notice Sets the price at which the NFT can be bought from other users.\n    /// @param _id The token id of the NFT.\n    /// @param _price The price at which the NFT can be bought.\n    function makeOffer(uint256 _id, uint256 _price) public {\n        nftCollection.transferFrom(msg.sender, address(this), _id);\n        offerCount++;\n        offers[offerCount] = _Offer(\n            offerCount,\n            _id,\n            msg.sender,\n            _price,\n            false,\n            false\n        );\n        emit Offer(offerCount, _id, msg.sender, _price, false, false);\n    }\n\n    /// @notice The sender buys a NFT from the offers list.\n    /// @param _offerId The id of the offer which the user wants to buy.\n    function fillOffer(uint256 _offerId) public payable {\n        _Offer storage _offer = offers[_offerId];\n        require(_offer.offerId == _offerId, \"The offer must exist\");\n        require(\n            _offer.user != msg.sender,\n            \"The owner of the offer cannot fill it\"\n        );\n        require(!_offer.fulfilled, \"An offer cannot be fulfilled twice\");\n        require(!_offer.cancelled, \"A cancelled offer cannot be fulfilled\");\n        require(\n            msg.value == _offer.price,\n            \"The ETH amount should match with the NFT Price\"\n        );\n        nftCollection.transferFrom(address(this), msg.sender, _offer.id);\n        _offer.fulfilled = true;\n        userFunds[_offer.user] += msg.value;\n        emit OfferFilled(_offerId, _offer.id, msg.sender);\n    }\n\n    /// @notice Cancel an offer from the offers list. Only available to the owner of the offer.\n    /// @param _offerId The id of the offer which the user wants to cancel.\n    function cancelOffer(uint256 _offerId) public {\n        _Offer storage _offer = offers[_offerId];\n        require(_offer.offerId == _offerId, \"The offer must exist\");\n        require(\n            _offer.user == msg.sender,\n            \"The offer can only be canceled by the owner\"\n        );\n        require(\n            _offer.fulfilled == false,\n            \"A fulfilled offer cannot be cancelled\"\n        );\n        require(\n            _offer.cancelled == false,\n            \"An offer cannot be cancelled twice\"\n        );\n        nftCollection.transferFrom(address(this), msg.sender, _offer.id);\n        _offer.cancelled = true;\n        emit OfferCancelled(_offerId, _offer.id, msg.sender);\n    }\n\n    /// @notice The user can withdraw their funds made by selling NFT.\n    /// @dev Not implemented in UI yet.\n    function claimFunds() public {\n        require(\n            userFunds[msg.sender] > 0,\n            \"This user has no funds to be claimed\"\n        );\n        payable(msg.sender).transfer(userFunds[msg.sender]);\n        emit ClaimFunds(msg.sender, userFunds[msg.sender]);\n        userFunds[msg.sender] = 0;\n    }\n\n    // Fallback: reverts if Ether is sent to this smart-contract by mistake\n    fallback() external {\n        revert();\n    }\n}\n",
  "sourcePath": "D:\\Softwareprojekte Uni\\hackathon\\nft-marketplace\\src\\contracts\\NFTMarketplace.sol",
  "compiler": {
    "name": "solc",
    "version": "0.8.13+commit.abaa5c0e.Emscripten.clang"
  },
  "schemaVersion": "3.4.6",
  "updatedAt": "2022-04-05T12:38:52.572Z",
  "networkType": "ethereum",
  "devdoc": {
    "kind": "dev",
    "methods": {
      "cancelOffer(uint256)": {
        "params": {
          "_offerId": "The id of the offer which the user wants to cancel."
        }
      },
      "claimFunds()": {
        "details": "Not implemented in UI yet."
      },
      "fillOffer(uint256)": {
        "params": {
          "_offerId": "The id of the offer which the user wants to buy."
        }
      },
      "makeOffer(uint256,uint256)": {
        "params": {
          "_id": "The token id of the NFT.",
          "_price": "The price at which the NFT can be bought."
        }
      }
    },
    "version": 1
  },
  "userdoc": {
    "kind": "user",
    "methods": {
      "cancelOffer(uint256)": {
        "notice": "Cancel an offer from the offers list. Only available to the owner of the offer."
      },
      "claimFunds()": {
        "notice": "The user can withdraw their funds made by selling NFT."
      },
      "fillOffer(uint256)": {
        "notice": "The sender buys a NFT from the offers list."
      },
      "makeOffer(uint256,uint256)": {
        "notice": "Sets the price at which the NFT can be bought from other users."
      }
    },
    "version": 1
  }
}